:020000040800F2
:100000003833002091010008990100089B01000885
:100010009D0100089F010008A101000800000000E8
:10002000000000000000000000000000A301000824
:10003000A501000800000000A70100082909000828
:10004000AB010008AB010008AB010008AB010008E0
:10005000AB010008AB010008AB010008AB010008D0
:10006000AB010008AB010008AB010008AB010008C0
:10007000AB010008AB010008AB010008AB010008B0
:10008000AB010008AB010008AB010008AB010008A0
:10009000AB010008AB010008AB010008AB01000890
:1000A000AB010008AB010008AB010008AB01000880
:1000B000AB010008AB010008AB010008AB01000870
:1000C000AB010008AB010008AB010008AB01000860
:1000D000AB01000895090008AD0A0008150B0008DF
:1000E000AB010008AB010008AB01000800F002F80A
:1000F00000F03FF80AA090E8000C82448344AAF183
:100100000107DA4501D100F034F8AFF2090EBAE880
:100110000F0013F0010F18BFFB1A43F0010318473B
:100120006414000084140000103A24BF78C878C119
:10013000FAD8520724BF30C830C144BF04680C60ED
:10014000704700000023002400250026103A28BF35
:1001500078C1FBD8520728BF30C148BF0B60704739
:10016000642900F07580002070471FB51FBD10B5D1
:1001700010BD00F0F3F91146FFF7F7FF00F01EFF86
:1001800000F011FA03B4FFF7F2FF03BC00F018FA15
:100190000948804709480047FEE7FEE7FEE7FEE71B
:1001A000FEE7FEE7FEE7FEE7FEE7FEE70448054957
:1001B000054A064B7047000035090008ED000008AD
:1001C000382D002038330020382F0020382F002011
:1001D0000FB4044910B503AA029800F05FF910BCEF
:1001E0005DF814FB200000202DE9F0410E46044686
:1001F000002020622046E168884730B3252805D0DA
:10020000D4E901219047206A401CF2E7E1682046CA
:1002100000278847050018D0A5F14100192802D809
:1002200020354FF400673246294620462760FFF705
:1002300097FF40B1012804D0F61D26F007060836C6
:10024000D8E7361DD6E72846DAE7206ABDE8F08110
:100250002DE9F0410646002410687529314616A59F
:1002600010D0AFF30080002802DA404213A507E067
:1002700031688A0701D512A502E0490704D511A506
:10028000012401E0AFF3008000210A2206F12407D7
:1002900009E0B0FBF2FCB0FBF2F302FB1C003030D3
:1002A00078541846491C0028F3D123462A46304684
:1002B000BDE8F04100F099B8000000002D000000FA
:1002C0002B00000020000000032A40F2308010F0D4
:1002D000030C00F0158011F8013BBCF1020F6244E1
:1002E00098BF11F801CB00F8013B38BF11F8013B72
:1002F000A2F1040298BF00F801CB38BF00F8013B1F
:1003000011F0030300F0DC80083AC0F0088051F8D7
:10031000043B083A51F804CBA0E80810F5E7121D99
:100320005CBF51F8043B40F8043BAFF30080D207B8
:1003300024BF11F8013B11F801CB48BF11F8012B84
:1003400024BF00F8013B00F801CB48BF00F8012BA7
:1003500070474FF000020429C0F0128010F0030C27
:1003600000F01B80CCF1040CBCF1020F18BF00F8A8
:10037000012BA8BF20F8022BA1EB0C0100F00DB857
:100380005FEAC17C24BF00F8012B00F8012B48BFB5
:1003900000F8012B70474FF0000200B51346944659
:1003A0009646203922BFA0E80C50A0E80C50B1F1CD
:1003B0002001BFF4F7AF090728BFA0E80C5048BFE1
:1003C0000CC05DF804EB890028BF40F8042B08BF7F
:1003D000704748BF20F8022B11F0804F18BF00F87B
:1003E000012B70477047704770472DE9F0470D4665
:1003F00099469246044600F124080168880604D50F
:10040000E06921F01001216000E00120A84201DD37
:10041000471B00E00027A1697A1902EB0900081ABE
:10042000A0612078C00602D42046AFF300800026E9
:1004300008E0D4E901211AF806009047206A401C20
:10044000761C20624E45F4DB2078C0060AD5204693
:10045000AFF3008006E0D4E9012130209047206A04
:10046000401C2062381EA7F10107F4DC07E0D4E944
:10047000012118F805009047206A401C2062281EC0
:10048000A5F10105F3DC2046AFF3008020780006DB
:1004900002D50220BDE8F0870120FBE7074B70B5CD
:1004A0000D467B4400F043F80446284600F052F81D
:1004B00010B14FF0FF3070BD204670BDD30A000070
:1004C00010B5203AC0F00B80B1E81850203AA0E8EF
:1004D0001850B1E81850A0E81850BFF4F5AF5FEA23
:1004E000027C24BFB1E81850A0E8185044BF18C9D6
:1004F00018C0BDE810405FEA827C24BF51F8043B7D
:1005000040F8043B08BF7047D20728BF31F8023BD0
:1005100048BF11F8012B28BF20F8023B48BF00F864
:10052000012B704701694A1C02610878704700B5C9
:100530008FB0CDE901310021059105497944CDE91C
:10054000031011466846FFF74FFE0FB000BD0000D4
:10055000E5FFFFFF007B00F080007047754600F06C
:100560002BF8AE4605006946534620F00700854645
:1005700018B020B5FFF71AFEBDE820404FF0000686
:100580004FF000074FF000084FF0000B21F007017B
:10059000AC46ACE8C009ACE8C009ACE8C009ACE8BE
:1005A000C0098D46704710B50446AFF30080204661
:1005B000BDE81040FFF7E6BD00487047D82C00208A
:1005C00001491820ABBEFEE72600020070472DE966
:1005D000F0410246002500260020002300240027C9
:1005E00091F803C00CF00F0591F803C00CF0100C4B
:1005F000BCF1000F03D091F802C04CEA050591F858
:1006000000C0BCF1000F31D0146800202BE04FF087
:10061000010C0CFA00F3B1F800C00CEA03069E428C
:1006200020D183004FF00F0C0CFA03F7BC4305FAFE
:1006300003FC4CEA040491F803C0BCF1280F06D176
:100640004FF0010C0CFA00FCC2F814C00AE091F85B
:1006500003C0BCF1480F05D14FF0010C0CFA00FCAF
:10066000C2F810C0401C0828D1D31460B1F800C0F3
:10067000BCF1FF0F34DD546800202EE000F1080CBF
:100680004FF0010808FA0CF3B1F800C00CEA0306B9
:100690009E4221D183004FF00F0C0CFA03F7BC43AC
:1006A00005FA03FC4CEA040491F803C0BCF1280FDE
:1006B00005D100F1080C08FA0CF8C2F8148091F882
:1006C00003C0BCF1480F07D100F1080C4FF001083E
:1006D00008FA0CF8C2F81080401C0828CED35460E9
:1006E000BDE8F081416170470161704770B5024615
:1006F0000B464FF6FF7000210024002500BF0FE0DD
:10070000565C7040002408E000F001054010064EE1
:1007100036F815607040661CF4B2082CF4DB491CF6
:100720009942EDD370BD00008015000829B1064A3A
:10073000D2690243044BDA6104E0034AD26982437E
:10074000014BDA61704700000010024029B1064AEF
:1007500092690243044B9A6104E0034A926982431E
:10076000014B9A61704700000010024030B5002133
:100770000022002400232D4D6D6805F00C0121B1ED
:10078000042905D0082923D105E0294D056022E080
:10079000274D05601FE0254D6D6805F47012234D4F
:1007A0006D6805F48034022505EB92421CB9214D99
:1007B000554305600BE01D4D6D6805F400351DB116
:1007C0001C4D5543056002E0194D5543056002E09C
:1007D000174D056000BF00BF144D6D6805F0F001B6
:1007E0000909154D6B5C0568DD4045600F4D6D686E
:1007F00005F4E061090A104D6B5C4568DD408560D9
:100800000A4D6D6805F46051C90A0B4D6B5C456873
:10081000DD40C560054D6D6805F44041890B074D0D
:100820006B5CC568B5FBF3F5056130BD0010024097
:1008300000127A0000093D002C0000203C0000203E
:1008400010B500F001F810BD0CB50020019000902B
:100850003348006840F480303149086000BF3048B8
:10086000006800F4003000900198401C019000984E
:1008700018B90198B0F5A06FF1D12948006800F4CB
:10088000003010B10120009001E00020009000989D
:10089000012843D12348006840F010002149086036
:1008A0000846006820F0030008600846006840F031
:1008B000020008601A4840681949486008464068C4
:1008C00048600846406840F48060486008464068D8
:1008D00020F47C1048600846406840F4E810486006
:1008E0000846006840F08070086000BF0C4800684F
:1008F00000F000700028F9D00948406820F003009B
:10090000074948600846406840F00200486000BF60
:100910000348406800F00C000828F9D10CBD000025
:10092000001002400020024010B500F00DFE00F063
:1009300001FB10BD10B51348006840F001001149DB
:10094000086008464068104908400E49486008465B
:1009500000680E4908400B4908600846006820F40A
:10096000802008600846406820F4FE0048604FF48C
:100970001F008860FFF764FF4FF0006004490860C3
:1009800010BD0000001002400000FFF8FFFFF6FE5F
:1009900008ED00E010B540F22551104800F0A7F92D
:1009A000D8B10E4800F05EFA0D49087001200D49DB
:1009B00008700B4801780C4802780078401C0A4BFC
:1009C00018700A48815418460078552802DB002028
:1009D0001946087000200649087010BD0038014013
:1009E000240000202600002025000020D82B002015
:1009F0002700002010B586B0044601210420FFF72F
:100A0000A5FE01214804FFF791FE04202349088038
:100A100008202349088018208DF817001F480088F7
:100A2000ADF8140003208DF8160005A91D48FFF746
:100A3000CEFD04208DF8170019480088ADF8140089
:100A400003208DF8160005A91648FFF7C0FD019494
:100A50000020ADF810000C20ADF80E000020ADF81D
:100A60000C00ADF80A00ADF8080001A90E4800F02E
:100A70008DF9012240F225510B4800F062F9252042
:100A800000F028FA262000F025FA272000F022FAAC
:100A90000121054800F072F806B010BD1C000020CE
:100AA0001E000020000801400044004010B540F244
:100AB0002551134800F01BF900B3114800F0D2F99A
:100AC00010490870084600780A280BD008460078BC
:100AD0000D490E4A126888540C480068401C0B49A6
:100AE00008600BE001200A490860002107480068FF
:100AF000401E054A115400200449086010BD000042
:100B0000004400400C00002054000020140000208D
:100B10001800002010B540F22551134800F0E7F806
:100B200000B3114800F09EF910490870084600789B
:100B30000A280BD0084600780D490E4A12688854DE
:100B40000C480068401C0B4908600BE001200A4972
:100B50000860002107480068401E054A1154002023
:100B60000449086010BD0000004800400C0000204F
:100B700054000020140000201800002021B18289B8
:100B800042F40052828104E082894DF6FF731A40DC
:100B90008281704710B586B00446454800684549D3
:100BA00088420FD1012144F20400FFF7CFFD4FF43A
:100BB0000070414908804000404908804048414950
:100BC00008602DE03A4800683F49884211D1012170
:100BD0000420FFF7BBFD01214804FFF7A7FD042017
:100BE000354908800820354908803548354908606E
:100BF00016E02F4800683549884211D101210820AC
:100C0000FFF7A4FD01218804FFF790FD4FF48060F9
:100C1000294908804000294908802D482949086051
:100C200018208DF8170024480088ADF81400032020
:100C30008DF8160005A923480068FFF7C8FC0420BA
:100C40008DF817001D480088ADF8140003208DF8BA
:100C5000160005A91B480068FFF7B9FC01940020A5
:100C6000ADF810000C20ADF80E000020ADF80C001F
:100C7000ADF80A00ADF8080001A90D48006800F0C1
:100C800085F8012240F225510948006800F059F822
:100C9000252000F01FF9262000F01CF9272000F085
:100CA00019F9012102480068FFF768FF06B010BD7E
:100CB00008000020003801401C0000201E00002019
:100CC00000080140040000200044004000480040AB
:100CD000000C014002460020B1F5007F00D100BFAA
:100CE00013880B400BB1012000E00020704770B565
:100CF0000246002400230025002040F66A16B14277
:100D000000D100BFC1F3421501F01F03012606FA0E
:100D100003F3012D02D19689334006E0022D02D162
:100D2000168A334001E0968A33400C12012606FAF7
:100D300004F41688344013B10CB1012000E0002007
:100D400070BDF0B50346002400260025002040F6C3
:100D50006A17B94200D100BF1846C1F3421401F02E
:100D60001F06012707FA06F5012C01D10C3004E01B
:100D7000022C01D1103000E014301AB107682F4363
:100D8000076002E00768AF430760F0BD2DE9F04758
:100D900086B005460E460024A24600BFA1460027A5
:100DA000B08900B100BF2F462C8A4CF6FF7004407A
:100DB000F08804432C82AC894EF6F3100440B088CE
:100DC00031890843718908430443AC81AC8A4FF6EA
:100DD000FF400440B0890443AC8201A8FFF7C6FC81
:100DE0001F48874202D1DDF810A001E0DDF80CA019
:100DF000A88900F4004040B10AEBCA0000EB0A10D9
:100E000031684900B0FBF1F807E00AEBCA0000EBDB
:100E10000A1031688900B0FBF1F86420B8FBF0F0EB
:100E200004012009642101FB1089A88900F4004015
:100E300040B1322000EBC900B0FBF1F000F0070038
:100E4000044308E0322000EB09106421B0FBF1F00C
:100E500000F00F0004432C8106B0BDE8F0870000CD
:100E60000038014001468888C0F30800704770B51B
:100E700005460E46002404E0285D00F019F8601CC9
:100E8000C4B2B442F8DB70BD10B504462146054833
:100E900000F00AF800BF80210248FFF71BFF00287E
:100EA000F9D010BD00440040C1F3080282807047B1
:100EB00010B50446214606480068FFF7F5FF00BF5D
:100EC000802103480068FFF705FF0028F8D010BD17
:100ED0000800002000280DDB00BF00BF00F01F024B
:100EE000012191404209920002F1E022C2F8001172
:100EF00000BF00BF7047000010B5002804DB0A07E0
:100F0000130E054A135406E00A07140E034A00F0B4
:100F10000F031B1FD45410BD00E400E018ED00E0E7
:100F20000349086000BF024909680029FBD17047E6
:100F3000000000200448006820B103480068401EFB
:100F400001490860704700000000002008B5014614
:100F5000002000900AE0A1F1080001B29DF8000015
:100F6000401CC0B20090002900DA01E00029F2DA4A
:100F700000BF9DF8000008BD70B504460D46E0B204
:100F8000FFF782FF204670BD08B501211020FFF752
:100F9000DDFB10208DF803004002ADF800000320B7
:100FA0008DF8020069460448FFF711FB4FF4005129
:100FB0000148FFF799FB08BD00100140FFF7E4FF6F
:100FC00000F09AF94FF41650FFF7E4FD4FF4165075
:100FD000FFF710FD002405E004F10A00044921F8A0
:100FE0001400641C282CF7DB01E000F023FAFCE776
:100FF0004C2B00202DE9F04F99B006460024002725
:10100000F078B17840EA012B7079317940EA012912
:101010000FFA89F0FFF79AFF824630782549087069
:1010200070784870084680F802A000251AE0E91799
:1010300005EB5171C910A5EBC10119B915B1781CA7
:10104000C7B200241DF807000BEB05011A4A12F87D
:101050001110A1400843C0B20DF80700601CC4B2D3
:10106000681CC5B24D45E2DB002406E01DF8041003
:10107000E01C104A1154601CC4B2781C8442F5DB99
:10108000E01CC1B20B48FFF731FB8046E01C094A67
:1010900002F800804FEA2821201D1154601DC1B2C2
:1010A000104600F021F9F9006846FFF774F919B00D
:1010B000BDE8F08F822C00209C2B00202DE9F0470A
:1010C00005468A460027B8460024E878A97840EA11
:1010D0000128414624A0FFF77BF86879297940EA86
:1010E0000124214624A0FFF773F8287827490870C7
:1010F000687848706006000E8870002613E008EBE0
:101100000700234931F810000112F01C1F4A115446
:1011100008EB07001E4911F81010301D1154781CFF
:10112000C7B2B01CC6B2B6EB440FE8DB032000EB3D
:101130004400C1B21548FFF7D9FA81464FEA292089
:10114000042101EB4401114A5054032101EB4401F5
:1011500002F80190052000EB4400C1B2104600F0F7
:10116000C3F8BDE8F08700005265674164647265AA
:1011700073733A2025640A004E756D6265724F667E
:101180005265673A2025640A00000000822C002086
:101190004C2B00202DE9F04104460D46E078A17863
:1011A00040EA01266079217940EA01270FB1012048
:1011B00000E00020044921F816002946204600F0EE
:1011C00093F8BDE8F08100009C2B00202DE9F04150
:1011D00004460D46E078A17840EA0126607921793D
:1011E00040EA0127044820F816702946204600F0FE
:1011F0007BF8BDE8F08100004C2B00202DE9F04782
:1012000005468A466879297940EA0129002719E0CC
:1012100008F10700285C0121A1400840144921F889
:101220001700601CC4B2E11704EB5171C910A4EBA4
:10123000C10129B924B108F1010000F0FF08002420
:10124000781CC7B24F45E3DB0A4829680160A988CA
:1012500081800621FFF74AFA064606498E71301250
:10126000C8710821034800F03FF8BDE8F08700008E
:101270009C2B0020822C00202DE9F04704468A4652
:101280000027E078A17840EA01286079217940EAD6
:10129000012900260FE007F10800215CF81D205C01
:1012A00041EA002008EB06010D4A22F81100B81CA3
:1012B000C7B2701CC6B24E45EDDB0A48216801601A
:1012C000A18881800621FFF711FA054605498D7135
:1012D0002812C8710821034800F006F8BDE8F0871D
:1012E0004C2B0020822C002070B504460D46294668
:1012F0002046FFF7BCFD70BD10B5124800684FF4E2
:101300007A71B0FBF1F4601EB0F1807F01D301204F
:101310000FE0601E4FF0E02148610F214FF0FF30D9
:10132000FFF7EAFD00204FF0E02188610720086107
:10133000002008B100BFFEE70021481EFFF7DCFDDA
:1013400010BD00004000002070B504460D466078D6
:1013500006281CD006DC012809D003280FD0052858
:1013600035D11CE00F2822D0102830D127E019A059
:10137000FEF72EFF29462046FFF73CFE27E019A086
:10138000FEF726FF29462046FFF798FE1FE019A02A
:10139000FEF71EFF29462046FFF718FF17E019A0A9
:1013A000FEF716FF29462046FFF7F4FE0FE019A0CE
:1013B000FEF70EFF29462046FFF720FF07E019A0A1
:1013C000FEF706FF29462046FFF756FF00BF00BF85
:1013D00070BD00006D616B655061636B65745F305B
:1013E000310A00006D616B655061636B65745F303D
:1013F000330A00006D616B655061636B65745F302B
:10140000360A00006D616B655061636B65745F3017
:10141000350A00006D616B655061636B65745F3107
:10142000350A00006D616B655061636B65745F31F7
:10143000360A000070B53048007801285BD12FA033
:10144000FEF7C6FE00202C4908702F480278521C77
:101450002E492F48FEF738FF2B48047800202A49F0
:10146000087055212948FEF774FF55212948FEF7D9
:1014700070FFA01EC1B22648FFF738F90546A01E2E
:101480002349095C601E224A105C41EA002022497F
:10149000088008460288294620A0FEF799FE1E48CB
:1014A0000088A8420AD11A480078302806D122A024
:1014B000FEF78EFE21461648FFF746FF1448407897
:1014C000062818D112480078302814D11048C07866
:1014D000802810D181011B48FFF704F94FF47A707E
:1014E000FFF71EFD4FF400511648FFF7FDF84FF4CB
:1014F0007A70FFF715FD70BD2800002068656C6CE0
:101500006F20310A0000000025000020D82B0020A9
:101510002D2C0020822C00202A000020435243560C
:10152000616C75653A2025642C2072784352433AE9
:101530002025640A0000000068656C6C6F20320A88
:1015400000000000001001400A48007801280FD177
:10155000094801780078401C074A1070642907DDAB
:1015600000200449087011460870012003490870E2
:1015700070470000260000202700002028000020DF
:10158000000001A0A4150008000000205400000085
:1015900028010008F815000854000020E43200007B
:1015A0004401000800000000000000000038014075
:1015B000000000000000000000000000000000002B
:1015C000000000000000000000000000000000001B
:1015D00000000000010203040102030406070809D9
:1015E0000204060800A24A040000000000000000F7
:0815F0000102030406070809CB
:04000005080000ED02
:00000001FF
