:020000040800F2
:1000000028380020D5020008DD020008DF020008C1
:10001000E1020008E3020008E50200080000000019
:100020000000000000000000000000003D02000889
:10003000E90200080000000081020008ED1E00082F
:10004000EF020008EF020008EF020008EF020008CC
:10005000EF020008EF020008EF020008EF020008BC
:10006000EF020008EF020008EF020008EF020008AC
:10007000EF020008EF020008EF020008EF0200089C
:10008000EF020008EF020008EF020008EF0200088C
:10009000EF020008EF020008EF020008EF0200087C
:1000A000EF020008EF020008EF020008EF0200086C
:1000B000EF020008EF020008EF020008EF0200085C
:1000C000EF020008EF020008EF020008EF0200084C
:1000D000EF0200080920000871200008D92000085C
:1000E000EF020008EF020008EF02000800F002F83B
:1000F00000F090F80AA090E8000C82448344AAF132
:100100000107DA4501D100F085F8AFF2090EBAE82F
:100110000F0013F0010F18BFFB1A43F0010318473B
:100120002045000040450000103A24BF78C878C13F
:10013000FAD8520724BF30C830C144BF04680C60ED
:10014000704700000023002400250026103A28BF35
:1001500078C1FBD8520728BF30C148BF0B60704739
:100160006E2900F06182702900F0A383662904F0F3
:10017000F981652904F0F681672904F0F38161298A
:10018000AFF3008003681B0A28BF41F08001692992
:1001900000F00E82642900F00B82752900F00882BD
:1001A0006F2900F03083782900F06F83E92900F08F
:1001B000CB82E42900F0C882F52900F0C582EF293E
:1001C00000F02D83F82900F06E830368DB0928BF57
:1001D00041F08001632900F02487732900F029870A
:1001E000E32900F03487F32900F0398700207047B5
:1001F0001FB500F085FF04000020002104F09CF9E9
:10020000401C60600020002104F080F9E0601FBD08
:1002100010B510BD00F047FF114603B402F0F3F92A
:1002200003BCFFF7E5FF02F0F7F901F021F803B492
:10023000FFF7EEFF03BC01F029F80000224B19681C
:100240000868B0E8F00F80F30988BFF36F8F4FF0B4
:10025000000080F311884EF00D0E70470000000082
:1002600006480068006880F3088862B661B6BFF38C
:100270004F8FBFF36F8F00DF00BF00BF08ED00E0BE
:10028000EFF30980BFF36F8F0F4B1A6820E9F00F6F
:10029000106008B54FF0100080F31188BFF34F8F46
:1002A000BFF36F8F03F0FEF94FF0000080F3118869
:1002B000BDE8084019680868B0E8F00F80F30988C5
:1002C000BFF36F8F704700BF74000020EFF305800D
:1002D000704700000948804709480047FEE7FEE7ED
:1002E000FEE7FEE7FEE7FEE7FEE7FEE7FEE7FEE7E6
:1002F00004480549054A064B70470000A91F00083D
:10030000ED00000828320020283800202834002082
:10031000283400201CB50C46064B7B4469460090EF
:10032000204600F09AF904460020694600F0A8F93A
:1003300020461CBD63030000032A40F2308010F009
:10034000030C00F0158011F8013BBCF1020F624470
:1003500098BF11F801CB00F8013B38BF11F8013B01
:10036000A2F1040298BF00F801CB38BF00F8013BAE
:1003700011F0030300F06C83083AC0F0088051F8D4
:10038000043B083A51F804CBA0E80810F5E7121D29
:100390005CBF51F8043B40F8043BAFF30080D20748
:1003A00024BF11F8013B11F801CB48BF11F8012B14
:1003B00024BF00F8013B00F801CB48BF00F8012B37
:1003C000704702F0FF0343EA032242EA024200F0D0
:1003D00002B84FF000020429C0F0128010F0030CA4
:1003E00000F01B80CCF1040CBCF1020F18BF00F828
:1003F000012BA8BF20F8022BA1EB0C0100F00DB8D7
:100400005FEAC17C24BF00F8012B00F8012B48BF34
:1004100000F8012B70474FF0000200B513469446D8
:100420009646203922BFA0E80C50A0E80C50B1F14C
:100430002001BFF4F7AF090728BFA0E80C5048BF60
:100440000CC05DF804EB890028BF40F8042B08BFFE
:10045000704748BF20F8022B11F0804F18BF00F8FA
:10046000012B70474FF0013C50F8042B51F8043B2E
:100470009A4221D1A2EB0C03934313EACC1317D178
:1004800050F8042B51F8043B9A4215D1A2EB0C030F
:10049000934313EACC130BD150F8042B51F8043BCF
:1004A0009A4209D1A2EB0C03934313EACC13DBD09D
:1004B0004FF00000704700BFD01A01BAB1FA81F1C5
:1004C00001F0180122FA01F0CB40C1F12001DBB2AA
:1004D000C0B2C01A2CFA01F3D11A914311EAC31128
:1004E000E6D1704770477047704770B5044685691C
:1004F0000068C10601D5302600E02026C00707D0DD
:1005000070BDD4E9012130469047206A401C20622A
:100510006D1EF6D570BD70B5044685690078C007BC
:1005200007D170BDD4E9012120209047206A401CEA
:1005300020626D1EF6D570BD09684A0501D540B22E
:100540007047C905FCD500B2704709684A0501D556
:10055000C0B27047C905FCD580B2704770B50C4673
:100560000546012A05D02878800600D5EA690023CF
:1005700002E0012305E05B1C934202D2E05C00280C
:10058000F9D1A869E618C01AA861286A1844286237
:100590002846FFF7AAFF04E0D5E9012114F8010B72
:1005A0009047B442F8D32846FFF7B5FF70BD00006E
:1005B0002DE9F0410646002410687529314616A53C
:1005C00010D0FFF7B9FF002802DA404213A507E078
:1005D00031688A0701D512A502E0490704D511A5A3
:1005E000012401E0FFF7B1FF00210A2206F12407F0
:1005F00009E0B0FBF2FCB0FBF2F302FB1C00303070
:1006000078541846491C0028F3D123462A46304620
:10061000BDE8F04100F093BA000000002D0000009A
:100620002B0000002000000011680268006A5305DA
:1006300001D508700AE0D30501D5088006E013064D
:1006400003D5C217C1E9000200E00860012070472D
:1006500001694A1C02610878704700B58FB0CDE986
:1006600001310021059105497944CDE90310114676
:10067000684600F029F90FB000BD0000E5FFFFFF5C
:100680000A6802F8010B0A60704700002DE9FF5F5D
:1006900015468A460446DFF8AC80F8440027D8E9BE
:1006A00000103E46CDE9001010E03AF816106A46F8
:1006B00002A800F0D8FC411C07D02178890603D598
:1006C000E269391891420DD80744761C20788006DB
:1006D00002D5E069B84205DDAE42E6DB3AF8160025
:1006E0000028E2D1A069C01BA0612046FFF7FDFEF3
:1006F000D8E90010CDE90010002017E03AF81810F2
:100700006A4602A800F0AFFCB0F1FF3F81460BD073
:1007100000250DF1080B05E0D4E901211BF80500C7
:1007200090476D1C4D45F7D308F10100B04280465B
:10073000E4DB206A384420622046FFF7ECFEBDE887
:10074000FF9F0000CA3E00002DE9F0418046D21D07
:1007500022F007020025D2E90002F52915A614D0DF
:10076000011E72F1000106DA0023D0EB030063EBF7
:10077000020211A608E0D8F800108B0701D50FA6D9
:1007800002E0490701D50EA601251146002408F113
:10079000240704E000F08EF930323A55641C50EA28
:1007A0000102F7D12B46324621464046BDE8F041D2
:1007B00000F0C5B9000000002D0000002B00000073
:1007C0002000000030B4002100F1240408E002F011
:1007D0000705D208303542EA4372DB086554491CEC
:1007E00052EA0305F3D10468002310A2250707D5B8
:1007F000A40600D421B1C46901230DA2641EC46102
:1008000030BC00F09CB910B5044621461068FFF7D3
:100810009CFE02462046BDE810400023D2E7D21DD0
:1008200022F00701D1E90023CCE70000000000001E
:1008300030000000F0B40D460188090502D5214CB6
:100840007C4402E01F4C7C440E34002100F124065D
:1008500008E002F00F071209E75D42EA03721B0984
:100860007754491C52EA0307F3D102780023120798
:1008700004D5702D06D009B1022311342246F0BCF4
:1008800000F05DB901231034F8E770B504460D4659
:1008900021461068FFF759FE024629462046BDE86A
:1008A00070400023C6E7D21D22F00703D3E90023DE
:1008B000C0E70368126843F0200303600823C361A4
:1008C0000023B7E72C3D00002DE9F05F8946044680
:1008D0004FF0000ADFF874B1FB44C0F820A02046B6
:1008E000E1688847002874D0252806D0D4E9012182
:1008F0009047206A401C2062F1E700265F462046B0
:10090000E16888472028054607DB312D05D2781994
:1009100010F8200C08B10643F1E7B00701D526F026
:100920000406C4F81CA00027C4F818A02A2D09D07A
:10093000284601F0F3FD38B304EB8708303DC8F8D2
:10094000185019E059F8041B204604EB8702916106
:10095000E1688847012F054618D1E069002820DAB0
:1009600026F020061DE0D8F8180000EB800005EB0B
:1009700040003038C8F818002046E168884705462E
:1009800001F0CCFD0028EED1012F0AD02E2D08D188
:100990002046E16888477F1C0546022F46F0200666
:1009A000C4DBA069002803DA404246F00106A061DA
:1009B000F00701D026F010066C2D0BD0682D09D061
:1009C0004C2D39D06A2D35D0742D35D07A2D33D0B9
:1009D00016E038E0E1682F4620468847B8420546D1
:1009E00009D16C2F26D04FF48060E1680643204681
:1009F0008847054604E06C2F1AD04FF480700643F8
:100A00000DB3A5F14100192802D8203546F400663F
:100A10004A462946204626604E46FFF7A1FB80B194
:100A200001280BD0F61D26F0070000F1080956E753
:100A30004020E4E78020D8E70020D6E706F104094B
:100A40004DE7284652E7206ABDE8F09FBC3C000015
:100A500010B5203AC0F00B80B1E81850203AA0E859
:100A60001850B1E81850A0E81850BFF4F5AF5FEA8D
:100A7000027C24BFB1E81850A0E8185044BF18C940
:100A800018C0BDE810405FEA827C24BF51F8043BE7
:100A900040F8043B08BF7047D20728BF31F8023B3B
:100AA00048BF11F8012B28BF20F8023B48BF00F8CF
:100AB000012B704730B5B0F10A024FEA900E71F188
:100AC00000034EEA817EB0EB0E0061EB91014FEA2C
:100AD000101E4EEA017E10EB0E0041EB11114FEAA1
:100AE000102E4EEA016E10EB0E0041EB11214FEA81
:100AF000104E4EEA014E10EB0E0041EB1141401832
:100B000041F100014FEAD00040EA41704FEAD101C3
:100B100010EB80054FEA810444EA907444EB010431
:100B20006D1944EB0404521BA3414FF0000348BF6E
:100B30000A3200D530BD401C41F1000130BD2DE925
:100B4000F0470D4699469246044600F12408016894
:100B5000880604D5E06921F01001216000E0012041
:100B6000A84201DD471B00E00027A1697A1902EBCA
:100B70000900081AA0612078C00602D42046FFF7B9
:100B8000B4FC002608E0D4E901211AF806009047D9
:100B9000206A401C761C20624E45F4DB2078C0069B
:100BA0000AD52046FFF7A1FC06E0D4E90121302058
:100BB0009047206A401C2062381EA7F10107F4DC30
:100BC00007E0D4E9012118F805009047206A401C8D
:100BD0002062281EA5F10105F3DC2046FFF79BFCEF
:100BE0002078000602D50220BDE8F0870120FBE74F
:100BF00070472DE9FF4F0C461E464FF0FF378BB074
:100C0000D2E90001DDF860800A908A46C1F30A55F6
:100C100005B93D46002108464FF00000BAF1000F2B
:100C200000F4400005DA00EB80004FF4400101EAD7
:100C300050004FEA9059B9F1010F00DDB9460A980A
:100C400050EA4A000ED044F61050A5F2FF35454355
:100C50002F14B8F1000F1ED07542291E1EDDC9F1F8
:100C600000021CE0B8F1010F4FF0000001D030216C
:100C700003E0F24305E02154401CB042FBDB304668
:100C80000022002121540B99C1F80880C1E90020FD
:100C90000FB0BDE8F08FBD1B6D1CDEE74A4600DAE1
:100CA000694206A800F072FA06AB93E8070003ABAE
:100CB00083E8070050460A9900F0EFFA8DE8070034
:100CC000A0F500501F3800900398002D0ADD42F275
:100CD0001F014A460844002303A90390684600F018
:100CE00058FD09E0A0F500504A461F38002303A92B
:100CF0000390684600F062FD8DE807000004000CD8
:100D000003D04FF0FF30410800E01046B8F1000F6B
:100D100003D00022009215461EE0751E05D4FFF791
:100D2000C9FE303262556D1EF9D5B3460122084323
:100D300002D000227F1C04E02078302801D100225C
:100D40007F1E002A099784D01DE0112D07DAFFF7D6
:100D5000B1FE303262556D1C50EA0102F5D10843F4
:100D600002D00098C8B10EE00021681E05E0235CA7
:100D7000625C63542254401E491C8142F7DBAB463F
:100D8000A81B401E0990002004F80B000B98099A3C
:100D9000C0F80880C0E9002B7AE711264FF0000860
:100DA00057E72DE9F04F88460446D21D22F007018F
:100DB00091B0D1E90001CDE90A0101F08AFB0246B8
:100DC0000B98C00F01D02D2007E02068810701D5C6
:100DD0002B2002E0202101EAC000032A099001D063
:100DE000072A05DB03464146204600F08FF90BE158
:100DF0002078800601D5E06900E00620B8F1650F93
:100E0000814606D0B8F1660F18D0B8F1670F70D1DF
:100E100031E00020B9F1110F009001DB112301E056
:100E200009F101030AAA01A90CA8FFF7E2FEDDE916
:100E30000C70002609F10105834647E001204B466E
:100E400000904FF000470AAA01A90CA8FFF7D1FEB5
:100E5000DDE90DB00C995D46002610B909F10100DD
:100E60000D18B9EB050003D4C0F1FF3609F10105F7
:100E7000A5EB09002BE0B9F1010F01DA4FF00109F0
:100E80000020B9F1110F0090484601DD112300E068
:100E900003460AAA01A90CA8FFF7ABFEDDE90C7016
:100EA0004D4600268346207800070AD4AB4500DA79
:100EB0005D4601A8012D04DD411911F8011C3029FE
:100EC00007D04F4502DA17F1040F04DA01208246F9
:100ED0000FE06D1EEEE7002F02DCED1B3E4403E049
:100EE000781CA84200DD7D1CB81B00F1010A4FF000
:100EF00000472078000703D4AA4501DB4FF0FF3AF2
:100F00000021B7F1004F0DF143088DF8431024D0B4
:100F100002202B23002F01DA7F422D230A21021EFB
:100F2000A0F1010000DC5FB197FBF1FC97FBF1F24F
:100F300001FB1C7C17460CF1300C08F801CDEEE7E4
:100F4000A8F1010003702188090501D5452100E0C1
:100F50006521A0F1010800F8011C09980FA9A1EB77
:100F60000807FF1D00B10120411901EBEA70A169DA
:100F70003844081A401EA0612078C00602D42046DA
:100F8000FFF7B3FA099828B1D4E901219047206A04
:100F9000401C20622078C00622D52046FFF7A5FA23
:100FA0001EE0002E04DBB34502DD01A8805D00E0F9
:100FB0003020D4E901219047206A401C2062761C31
:100FC000AAF101005FEA000A0AD100F099F8C068AE
:100FD0000168405CD4E901219047206A401C2062EE
:100FE000281EA5F10105DCDC07E0D4E9012118F891
:100FF000010B9047206A401C2062381EA7F10107B0
:10100000F3DC2046FFF787FA032011B041E610B564
:10101000436913B1AFF3008001E0FFF79FFA0120AD
:1010200010BD127800F124010A7000224A700122DA
:10103000EDE711684FF0FF32E9E710B5436913B1EE
:10104000AFF3008001E0FFF721FB012010BD128803
:1010500000F1240182840022C2840122EDE711689C
:101060004FF0FF32E9E770B516460C46054600F032
:101070003FF8036893F80101012806D0FF2C0FD830
:10108000185D68B101202C7070BDD3F8070132469D
:10109000214603F2071303442846BDE87040184771
:1010A0004FF0FF3070BD754600F0ECF8AE4605001D
:1010B0006946534620F00700854618B020B5FFF773
:1010C00017F9BDE820404FF000064FF000074FF041
:1010D00000084FF0000B21F00701AC46ACE8C00956
:1010E000ACE8C009ACE8C009ACE8C0098D4670475F
:1010F00010B500F005F8001D10BD00BF3D34000024
:1011000010B500F0BFF8203010BD00002DE9F0410F
:101110001F46044603260168072A01F4006004DB29
:1011200008B116A505E016A503E008B115A500E075
:1011300015A521F010002060A069C01EA0610FB1AC
:10114000401EA0612046FFF7D0F94FB1D4E901213C
:1011500038469047206A401C2062C01C206206E08E
:10116000206AFAE7D4E9012115F8010B9047761EB1
:10117000F8D22046FFF7CFF9BDE8F0814E414E008E
:101180006E616E00494E4600696E66002DE9F047BB
:10119000814616468AB0354878440DC88DE80D0062
:1011A00032487844801C03AC0DC884E80D0041F639
:1011B0009B300844372190FBF1F290FBF1F5A5F14B
:1011C000800501FB12041B3C02D56442012000E0B3
:1011D0000020DFF898A080460027FA44AAF1BE0A52
:1011E0000EE0E0070AD03246684607EB47010123CC
:1011F0000AEB810100F0E2FA8DE8070064107F1C21
:10120000002CEED1194F7F44AE3F19E0E80715D00E
:1012100007EB04100DF1180A90E80E008AE80E00A2
:10122000C068F04201D1981908903246012306A9FE
:1012300003A800F0C3FA03AB83E807006D10641C39
:10124000002DE3D14FF0010332466946B8F1000F9B
:1012500003A802D000F09DFA01E000F0AFFAC9E95E
:101260000001C9F808200AB0BDE8F0878C340000FE
:1012700010B50446AFF300802046BDE81040FEF7ED
:10128000D6BF000000487047C8310020014918202F
:10129000ABBEFEE72600020070475FEA400C08BFC5
:1012A00091F0000F4FEA8C234FEAC12243EA5151DB
:1012B0004FEA1C5018BF00F5F0404FEA300018BF4D
:1012C00041F000415FEA6C5C00F02980BCF1FF3F17
:1012D00008BF40F080407047130C06BF12044FF067
:1012E000100C4FF0000C130E04BF12020CF1080C8E
:1012F000130F04BF12010CF1040C930F04BF9200F2
:101300000CF1020CD30F04BF52000CF1010C11467A
:101310004FF00002A0F11F00A0EB0C00704711F08D
:10132000004F08BF704731F000413FF4D5AF0B0CC0
:1013300006BF09044FF0100C4FF0000C0B0E04BF59
:1013400009020CF1080C0B0F04BF09010CF1040C8D
:101350008B0F04BF89000CF1020CCB0F04BF4900B6
:101360000CF1010CCCF12003A0EB0C0022FA03F3EA
:1013700002FA0CF241EA030100F10100704720F08B
:101380007F4C80EA030023F07F47ACEB070303F5B3
:101390007C5300F0004003F1FF032DE980494FEA40
:1013A000154B09B44FEA144325EA0B4E24EA0348CF
:1013B0000FF2042606EB132749083E785FEA320253
:1013C00003FB0667C7F5000707FB06F64FEA54372D
:1013D0004FEAD64606F1020607FB066CCCF1005C2C
:1013E0004FEA1C472CEA074C07FB06F40CFB06F5FA
:1013F00004EB15464FEA961634BF00204FF000402C
:101400004FEAD13706FB07FC4FEA1C4C0CFB0BF7ED
:10141000D21B03FB0CF761EB07010CFB0EF7B0EBE3
:10142000074072EB17420CFB08F734BFA2EB0742F0
:10143000B2EB074261EB17414FEA0C444FEA9107C8
:1014400006FB07FC4FEA1C4C0CFB0BF7B0EBC7404C
:1014500072EB573203FB0CF734BFA2EBC742B2EB7F
:10146000C74261EB57310CFB0EF7B0EBC70072EBD4
:1014700057720CFB08F734BFA2EBC702B2EBC702EE
:1014800061EB5771039F4FEA816141EA921104EBCE
:10149000CC044FEAD1374FEA826206FB07FC42EAEE
:1014A00090124FEA80604FEA1C4C0CFB0BF7D21BEA
:1014B00003FB0CF761EB07010CFB0EF7B0EB0740E9
:1014C00072EB17420CFB08F734BFA2EB0742B2EBFA
:1014D000074261EB17414FEA8C554FEA910704EB45
:1014E0009C2406FB07FC4FEA1C4C0CFB0BF7B0EBF3
:1014F000C74072EB573203FB0CF734BFA2EBC74275
:10150000B2EBC74261EB57310CFB0EF7B0EBC700F3
:1015100072EB57720CFB08F734BFA2EBC702B2EBB9
:10152000C70261EB577115EB4C254FEA816141EA27
:1015300092114FEA82624FEAD13742EA901206FBDB
:1015400007FC44F100044FEA80604FEA1C4C0CFB9E
:101550000BF7D21B03FB0CF761EB07010CFB0EF73B
:10156000B0EB074072EB17420CFB08F734BFA2EB5D
:101570000742B2EB074261EB174115EB1C154FEA2E
:10158000813141EA92414FEA823242EA90424FEA87
:1015900080304FEA0C7644F1000448EA03434EEAF7
:1015A0000B484FF0000EB2EB080C71EB030724BFA1
:1015B000624639464EEB0E0E4FF0000B00185241BA
:1015C00049414BEB0B0BB2EB080C71EB03077BF1C2
:1015D000000B24BF624639464EEB0E0E4FF0000B57
:1015E0000018524149414BEB0B0BB2EB080C71EB6D
:1015F00003077BF1000B24BF624639464EEB0E0E0B
:1016000051EA020718BF46F0010616EB0E7655F1B7
:10161000000254F1000103D5BDE88901BDE800884E
:10162000BDE88901BDE80048B619524141EB01010E
:10163000A3F10103704780807F7E7D7C7B7A79787F
:10164000777676757473727171706F6E6E6D6C6C87
:101650006B6A6A6968686766666564646363626129
:101660006160605F5F5E5E5D5D5C5C5B5B5A5A59AA
:101670005958585757565655555554545353525216
:101680005251515050504F4F4F4E4E4D4D4D4C4C6E
:101690004C4B4B4B4A4A4A494949484848474747B7
:1016A00047464646454545444444444343434342F4
:1016B000424242414141002B9C4630D477002BD01E
:1016C0001CB54FEA370703B44FF010004FF010017C
:1016D000BAF1000F06D0BCF1000FDCBF40F00800EB
:1016E00040F008014FF000000FBCBDE810400BF1C6
:1016F000010BBBF1010F08BF5FEA170722BF12F110
:10170000010211F101014FF0004143F1000300F02B
:10171000004043EA00007047F9D35708D0E746EA93
:10172000064613F1400F4FEA16461FDD13F1200F56
:10173000DFBF16430A46002120335B42BED0C3F10F
:10174000200746EA064602FA07F74FEA164646EA37
:101750000706C3F1200722FA03F201FA07F721FA7C
:1017600003F14FF0000342EA0702A7E746EA020648
:1017700046EA06464FEA164646EA0106BCBF46EA76
:101780000646360C4FF000034FF000024FF0000108
:1017900094E72DE9804C9A46934670B491E838005E
:1017A00007C831EA400C48BF34EA430C03D5FFF7C1
:1017B000E6FDFFF780FFF0BCBDE8008C2DE9804C12
:1017C0009A46934670B491E8380007C810F0804FED
:1017D00008BF13F0804F03D100F005F8FFF76BFF4F
:1017E000F0BCBDE8008C20F07F4780EA030023F0C6
:1017F0007F4C07EB0C03A3F57C5300F00040A3F1F2
:10180000FE0392F0000F00F0B38095F0000F00F09F
:1018100077802DE901494FEA11404FEA144621EA49
:10182000004800FB06FC24EA064708FB06F607FB17
:1018300008F800FB07F718EB06484CEB164C4FEA8C
:10184000124B18EB07484FEA15464CEB174022EABB
:101850000B4E0BFB06FC25EA06470EFB06F607FBC4
:101860000EFE0BFB07F71EEB064E4CEB164C4FF033
:1018700000061EEB074E4CEB174B18EB0B0840F124
:10188000000018EB0E0B58EB000840F100008F1A17
:101890004FF000013CBFC943661B14BFB5EB040CFD
:1018A00000213CBFC943F61B4FEA17444EEA8E0E97
:1018B00027EA04454FEA1C4704FB07622CEA074C61
:1018C00005FB07F70CFB05F604FB0CFC16EB0746C3
:1018D00042EB174216EB0C4642EB1C421BEB060692
:1018E00058EB0202414146EA9E0601D5BDE8018956
:1018F000B619524141EB0101A3F10103BDE8018991
:101900004FEA14454FEA114724EA054621EA074CFD
:1019100005FB07F406FB07F70CFB06F105FB0CFCC7
:1019200011EB074144EB17444FEA124711EB0C410E
:1019300044EB1C4422EA074C05FB07F206FB07F7C1
:101940000CFB06F605FB0CFC16EB074642EB1742B8
:1019500016EB0C4642EB1C456A1854F1000148BFD7
:101960007047B619524141EB0101A3F101037047E1
:1019700095F0000F37D04FEA11424FEA144721EAA1
:10198000024624EA074C02FB07F106FB07F70CFBB3
:1019900006F402FB0CFC14EB074441EB17414FEA41
:1019A000154714EB0C4441EB1C4125EA074C02FBA4
:1019B00007F506FB07F70CFB06F602FB0CFC16EB23
:1019C000074645EB174516EB0C4645EB1C42121932
:1019D00051F1000148BF7047B619524141EB010176
:1019E000A3F1010370474FEA14454FEA114724EA77
:1019F000054621EA074C05FB07F106FB07F70CFB40
:101A000006F24FF0000605FB0CFC12EB074241EB1F
:101A1000174112EB0C4251EB1C4148BF7047921822
:101A200041EB0101A3F101037047000010B5012152
:101A3000102000F06DF94FF4005005490880102087
:101A4000C87003208870034800F0C2F810BD000081
:101A500000000020001001401CB528E00A200023EF
:101A60000122114600901248006801F0CBFE0446A6
:101A7000012C1CD10FA000F0F3FC012251030F48F0
:101A800000F031F901200190811E0D48006802F03C
:101A90001FF900231A4601A90A48006802F00AF853
:101AA00000231A4619460648006802F003F8D5E7F5
:101AB0000C0000204C6564310A0000000010014059
:101AC00008000020040000201CB5002428E00A20A3
:101AD00000230122022100901248006801F092FECA
:101AE0000446022C1CD110A000F0BAFC00222103F5
:101AF0000F4800F0F8F802200190C11E0D48006860
:101B000002F0E6F800231A4601A90B48006801F02C
:101B1000D1FF00231A4619460648006801F0CAFFA3
:101B2000D5E700000C0000204C6564320A0000007C
:101B300000100140080000200400002008B52EE03D
:101B400000F0B8FB012814D115A000F005FB012816
:101B500005D101211448006801F00BFE09E013A033
:101B600000F0FAFA012804D102210F48006801F0C0
:101B700000FE0A2269460F48006802F027F858B1B3
:101B80000098012802D10CA000F098FC00980228CF
:101B900002D10CA000F092FC012001F0DDFBCFE7A8
:101BA00073657431000000000C000020736574320E
:101BB000000000000400002053657431204F4B0AE0
:101BC0000000000053657432204F4B0A00000000F3
:101BD0002DE9F041024600250026002000230024C4
:101BE000002791F803C00CF00F0591F803C00CF02A
:101BF000100CBCF1000F03D091F802C04CEA0505AF
:101C000091F800C0BCF1000F31D0146800202BE027
:101C10004FF0010C0CFA00F3B1F800C00CEA030617
:101C20009E4220D183004FF00F0C0CFA03F7BC4307
:101C300005FA03FC4CEA040491F803C0BCF1280F38
:101C400006D14FF0010C0CFA00FCC2F814C00AE0F7
:101C500091F803C0BCF1480F05D14FF0010C0CFA0C
:101C600000FCC2F810C0401C0828D1D31460B1F8A1
:101C700000C0BCF1FF0F34DD546800202EE000F1FD
:101C8000080C4FF0010808FA0CF3B1F800C00CEA98
:101C900003069E4221D183004FF00F0C0CFA03F78C
:101CA000BC4305FA03FC4CEA040491F803C0BCF100
:101CB000280F05D100F1080C08FA0CF8C2F81480BE
:101CC00091F803C0BCF1480F07D100F1080C4FF0A8
:101CD000010808FA0CF8C2F81080401C0828CED37E
:101CE0005460BDE8F0810AB1016100E041617047D4
:101CF00029B1064AD2690243044BDA6104E0034A7F
:101D0000D2698243014BDA61704700000010024043
:101D100029B1064A92690243044B9A6104E0034ADE
:101D200092698243014B9A617047000000100240A3
:101D300030B500210022002400232D4D6D6805F0F0
:101D40000C0121B1042905D0082923D105E0294D32
:101D5000056022E0274D05601FE0254D6D6805F404
:101D60007012234D6D6805F48034022505EB924214
:101D70001CB9214D554305600BE01D4D6D6805F400
:101D800000351DB11C4D5543056002E0194D55430A
:101D9000056002E0174D056000BF00BF144D6D687F
:101DA00005F0F0010909154D6B5C0568DD404560E3
:101DB0000F4D6D6805F4E061090A104D6B5C4568D4
:101DC000DD4085600A4D6D6805F46051C90A0B4D10
:101DD0006B5C4568DD40C560054D6D6805F44041AC
:101DE000890B074D6B5CC568B5FBF3F5056130BD2C
:101DF0000010024000127A0000093D002C00002073
:101E00003C00002010B500F001F810BD0CB500201A
:101E1000019000903348006840F4803031490860F8
:101E200000BF3048006800F4003000900198401C6A
:101E30000190009818B90198B0F5A06FF1D1294828
:101E4000006800F4003010B10120009001E0002093
:101E500000900098012843D12348006840F010000A
:101E6000214908600846006820F003000860084621
:101E7000006840F0020008601A484068194948604C
:101E80000846406848600846406840F48060486002
:101E90000846406820F47C1048600846406840F4DA
:101EA000E81048600846006840F08070086000BF95
:101EB0000C48006800F000700028F9D0094840681C
:101EC00020F00300074948600846406840F00200DF
:101ED000486000BF0348406800F00C000828F9D1B2
:101EE0000CBD0000001002400020024010B54FF071
:101EF000E020006902F016F8012801D001F002FD8F
:101F000010BD000010B5002100200022214B5B68AD
:101F100003F00C0121B1042906D0082928D107E0DB
:101F20001D4B1E4C236027E01B4B1C4C236023E001
:101F3000184B5B6803F47010164B5B6803F4803237
:101F4000022303EB904022B9154B4343134C23600B
:101F50000DE0104B5B6803F4003323B1104B434397
:101F60000E4C236003E00C4B43430C4C236003E016
:101F7000094B0A4C236000BF00BF064B5B68C3F3EC
:101F80000313084CE15C054B1B68CB40034C2360FA
:101F900010BD00000010024000127A004000002036
:101FA00000093D004400002010B51348006840F0CF
:101FB00001001149086008464068104908400E4970
:101FC0004860084600680E4908400B49086008460A
:101FD000006820F4802008600846406820F4FE0075
:101FE00048604FF41F008860FFF70CFF4FF000605F
:101FF0000449086010BD0000001002400000FFF816
:10200000FFFFF6FE08ED00E010B540F22551134841
:1020100000F06BF900B3114800F034FA1049087071
:10202000084600780A280BD0084600780D490E4A69
:10203000126888540C480068401C0B4908600BE08B
:1020400001200A490860002107480068401E054A2F
:10205000115400200449086010BD00000038014000
:1020600018000020C80000202000002024000020CC
:1020700010B540F22551134800F037F900B311486C
:1020800000F000FA10490870084600780A280BD0C2
:10209000084600780D490E4A126888540C480068BA
:1020A000401C0B4908600BE001200A490860002130
:1020B00007480068401E054A115400200449086082
:1020C00010BD00000044004018000020C80000209F
:1020D000200000202400002010B540F225511348B4
:1020E00000F003F900B3114800F0CCF91049087072
:1020F000084600780A280BD0084600780D490E4A99
:10210000126888540C480068401C0B4908600BE0BA
:1021100001200A490860002107480068401E054A5E
:10212000115400200449086010BD00000048004020
:1021300018000020C80000202000002024000020FB
:1021400021B1828942F40052828104E082894DF6F5
:10215000FF731A408281704770B504460125044917
:102160002046FEF77FF900B10025284670BD00002B
:10217000C800002010B586B00446454800684549AF
:1021800088420FD1012144F20400FFF7C1FD4FF452
:10219000007041490880400040490880404841495A
:1021A00008602DE03A4800683F49884211D101217A
:1021B0000420FFF7ADFD01214804FFF799FD04203D
:1021C0003549088008203549088035483549086078
:1021D00016E02F4800683549884211D101210820B6
:1021E000FFF796FD01218804FFF782FD4FF4806020
:1021F000294908804000294908802D48294908605C
:1022000018208DF8170024480088ADF8140003202A
:102210008DF8160005A923480068FFF7D9FC0420B3
:102220008DF817001D480088ADF8140003208DF8C4
:10223000160005A91B480068FFF7CAFC019400209E
:10224000ADF810000C20ADF80E000020ADF80C0029
:10225000ADF80A00ADF8080001A90D48006800F0CB
:1022600093F8012240F225510948006800F067F810
:10227000252000F042F9262000F03FF9272000F049
:102280003CF9012102480068FFF75AFF06B010BD73
:102290001400002000380140280000202A000020FF
:1022A00000080140100000200044004000480040A9
:1022B000000C014005480068012804D100200349B2
:1022C0000860012070470020FCE700002400002087
:1022D00002460020B1F5007F00D100BF13880B40FB
:1022E0000BB1012000E00020704770B502460024C9
:1022F00000230025002040F66A16B14200D100BF3D
:10230000C1F3421501F01F03012606FA03F3012D64
:1023100002D19689334006E0022D02D1168A33405D
:1023200001E0968A33400C12012606FA04F416885E
:10233000344013B10CB1012000E0002070BDF0B5B5
:102340000346002400260025002040F66A17B94203
:1023500000D100BF1846C1F3421401F01F06012747
:1023600007FA06F5012C01D10C3004E0022C01D152
:10237000103000E014301AB107682F43076002E004
:102380000768AF430760F0BD2DE9F04786B005460A
:102390000E460024A24600BFA1460027B08900B126
:1023A00000BF2F462C8A4CF6FF700440F08804438F
:1023B0002C82AC894EF6F3100440B0883189084372
:1023C000718908430443AC81AC8A4FF6FF40044056
:1023D000B0890443AC8201A8FFF7AAFC1F488742DA
:1023E00002D1DDF810A001E0DDF80CA0A88900F40E
:1023F000004040B10AEBCA0000EB0A103168490006
:10240000B0FBF1F807E00AEBCA0000EB0A103168F4
:102410008900B0FBF1F86420B8FBF0F0040120095A
:10242000642101FB1089A88900F4004040B13220EA
:1024300000EBC900B0FBF1F000F00700044308E036
:10244000322000EB09106421B0FBF1F000F00F0026
:1024500004432C8106B0BDE8F0870000003801403D
:102460000FB400B59BB01DA8019002A8019A1C9959
:10247000FDF750FF0020019002A800F01FF81BB0EC
:102480005DF814FB01468888C0F30800704700001F
:1024900010B5044621460648006800F00BF800BF5E
:1024A000802103480068FFF713FF0028F8D010BD13
:1024B00014000020C1F308028280704710B5044662
:1024C00003E014F8010BFFF7E3FF20780028F8D1B0
:1024D00010BD490050EAC12018BF04204A0D18BFA2
:1024E00040F0010040F2FF72B2EB515F08BF40F0D4
:1024F0000200012808BF0520704700280DDB00BF3F
:1025000000BF00F01F02012191404209920002F138
:10251000E022C2F8001100BF00BF704730380A281F
:1025200001D2012070470020704710B5044600F02A
:10253000D3F838B100F068F820B14FF0FF312068CF
:1025400001F0C6FB10BD000070B50546286800F01C
:10255000D3FE00240BE0084951F824102868884273
:1025600004D10020044941F8240002E0641C052C39
:10257000F1D300BF70BD00003008002070B50446E4
:1025800000202060002514E0154850F8250078B997
:1025900005EB8500134A02EB0011012001F0DDF983
:1025A0000F4941F82500084650F82500206002E058
:1025B0006D1C052DE8D300BF206830B900F08CF801
:1025C00018B1012001F0B8F92060002080F31188D3
:1025D00000BF206808B9002070BD0120FCE70000A2
:1025E00030080020A006002010B5044600F074F862
:1025F00040B100F009F828B100231A4619462068B6
:1026000001F058FA10BD704700BFEFF3058008B91C
:10261000012070470020FCE71CB5FFF7C5FCFFF761
:1026200071FC4FF41650FFF7A5FDFFF7FFF90120ED
:1026300001F082F917490860002204210A2001F004
:10264000A1F91549086001F085F8144908600020D7
:10265000012103468022CDE9001011A1134801F0A9
:10266000FFFB0020012103468022CDE9001010A1CC
:10267000134801F0F5FB0020012103468022CDE93B
:10268000001010A1134801F0EBFB00F0B5FF002093
:102690001CBD000008000020040000200C000020E9
:1026A00055534152542073656E6400003D1B000871
:1026B000526564204C45442073656E640000000040
:1026C000591A0008526564204C454420426C696EDA
:1026D0006B000000C91A000810B501F023FC0228A5
:1026E00001D1012010BD0020FCE700002DE9F041E0
:1026F00005460E462048076820480068001D00F087
:1027000039FD681CD8B9D6B11D4948681B4909680C
:1027100088601A4982680968CA6018490968091DF1
:102720008268516015490968091D8160144A13497E
:1027300009684A6111460968491C11601AE07C1950
:102740000E4800684460BC4207D20C480168091D6D
:102750000C48006800F059FD0CE008480168091DAC
:102760000948006800F051FD08480068844201D221
:1027700006480460BDE8F081880000207400002055
:10278000EC3000207C00002078000020A400002015
:1027900010B5044600F054FD30480068401C2F4935
:1027A00008602F48006840B92D480460084600685A
:1027B00001280DD100F0ECF90AE02A48006838B988
:1027C00027480068C06AE16A884201D8244804604A
:1027D00025480068401C2449086008460068606479
:1027E0002249E06A0968884202D92049E06A086003
:1027F000E16A01EB81011E4A02EB81014868A06099
:102800008268E260211D826851608160E16A01EBAB
:102810008101174A02EB81026261E16A01EB8101E9
:10282000134A52F82110491CE26A02EB8202104B53
:1028300043F8221000F016FD0A48006868B1084805
:102840000068C06AE16A884207D24FF080500949A7
:102850000860BFF34F8FBFF36F8F10BD840000205F
:102860007400002090000020A00000208C000020B8
:102870003C2C002004ED00E008B500F0E1FC0E481F
:102880000068A8B90D4800F0B0FC0D4800F0ADFCA0
:102890000A480C4908600A480B49086000200B4BA5
:1028A0000B4A10210090052001F095F802490860BC
:1028B00000F0D8FC08BD0000BC0000200031002062
:1028C00014310020B4000020B8000020283100207E
:1028D0007831002010B516E000F0B2FC0C48C0685A
:1028E000C468201D00F046FC0A480068401E0949E3
:1028F000086009480068401E0749086000F0B2FC03
:10290000204600F05FF8044800680028E4D110BDBC
:10291000D8300020840000208000002070B50446DC
:102920000D46206C70B1216CE0680144E160D4E98F
:102930000210884201D32168E1602846226CE168D8
:10294000FDF7FAFC70BD2DE9F04104460F4615462F
:102950004FF00008A66B206C48B9206800282CD1E5
:10296000A06801F0BDFB80460020A06025E07DB995
:102970003946226C6068FDF7DFFC216C6068084412
:102980006060D4E90101884217D32068606014E0D8
:102990003946226CE068FDF7CFFC216CE068411AF3
:1029A000E1602168E068884203D2216CA068411A86
:1029B000E160022D01D106B1761E701CA063404675
:1029C000BDE8F08110B5044694F8590030B9206B89
:1029D00000F058FC204600F055FC06E094F8590041
:1029E000012802D1204600F04DFC10BD01464A6A84
:1029F00022B10A6B1268C2F1380000E00020704773
:102A00000146084A126812680AB9012200E0002251
:102A10000A600A6822B9034A1268D268106800E0A6
:102A200000207047B400002030B54FF40053154823
:102A300000F007042CB1C01D20F00700114C041B4E
:102A40001B1B0246104C226000240F4D6C60D018F6
:102A5000083820F007000D4C206000240B4D2D6835
:102A60006C600A4D2D682C601146441A4C60074C6E
:102A700024680C60064D4C682C60064D4C682C6038
:102A800030BD00003C0C0020540000205C00002001
:102A9000640000206000002000BFFFF71BFF064815
:102AA00000680128F9D94FF0805004490860BFF34D
:102AB0004F8FBFF36F8FF0E73C2C002004ED00E058
:102AC00010B5044654B10020A06020600021E160F0
:102AD00000231A461946204600F0ECFF10BD2DE9F0
:102AE000F04106460D4617469846069C0DB92460EF
:102AF00000E02760E66325640121204600F08AFF9C
:102B000084F84C80BDE8F0812DE9F05F81460E46E7
:102B100090469A460A9F0C9C4FEA8801A522206B9A
:102B2000FDF74FFCA8F10100216B01EB800B2BF0AE
:102B3000070B7EB1002507E0715D04F134004155BB
:102B4000705D00B902E06D1C102DF5D300BF0021AF
:102B500043200155382F00D33727E762E764201D53
:102B600000F050FB04F1180000F04CFB2461C7F1A9
:102B70003800A061646252464946584600F0E8FABF
:102B800020600B9808B10B980460BDE8F09F00002E
:102B900010B5002407E004EB84010F4A02EB81002A
:102BA00000F023FB641C382CF5D30C4800F01DFB0F
:102BB0000B4800F01AFB0B4800F017FB0A4800F026
:102BC00014FB0A4800F011FB044809490860044856
:102BD0000849086010BD00003C2C00209C300020FB
:102BE000B0300020C4300020D8300020EC3000206D
:102BF000780000207C00002010B50146164800E057
:102C0000006803688B42FBD30246436813448B423F
:102C100004D143684C682344436001460A464B682C
:102C200013440468A34211D10C4C03682468A342E6
:102C300008D04B680468646823444B6003681B68D1
:102C40000B6005E0054B1B680B6001E003680B603F
:102C5000884200D0016010BD540000205C000020BC
:102C60002DE9F04104460D4616461F464FF0000878
:102C700065602461B5420CD8F01BA169884202D37B
:102C80004FF0010811E0211D0948006800F0BDFA6D
:102C90000BE0BE4204D2BD4202D34FF0010804E073
:102CA000211D0448006800F0B0FA4046BDE8F081FC
:102CB000B8000020B400002070B5054600F0C0FA4E
:102CC000A86B08B9012400E0002400F0CBFA2046EC
:102CD00070BD70B5054600F0B3FAA86BE96B884289
:102CE00001D1012400E0002400F0BCFA204670BDB0
:102CF00070B505460E460E480068C068C468201DC1
:102D000000F038FA94F8280000F0040028B13246A8
:102D10002946204600F0D0F805E094F8280000F09D
:102D2000FE0084F828002046216A884770BD000014
:102D3000B400002070B586B077E00298002805DA6C
:102D400003AED6E90020B168904700BF0298002882
:102D50006BDB049C606908B9012000E0002010B919
:102D6000201D00F007FA01A800F0D2F805460298ED
:102D70000A2858D2DFE800F05705072E3647060824
:102D80002F3700BF00BF00BF94F8280040F00100BB
:102D900084F828000398A269811803462A46204631
:102DA000FFF75EFFA8B194F8280000F0040038B1E6
:102DB0000398A26981182A46204600F07DF805E0B4
:102DC00094F8280000F0FE0084F828002046216ACC
:102DD000884729E000BF94F8280000F0FE0084F83E
:102DE000280021E000BF94F8280040F0010084F89A
:102DF00028000398A061A06941192B462A46204665
:102E0000FFF72EFF10E094F8280000F0020018B938
:102E1000204600F037FA05E094F8280000F0FE00A4
:102E200084F8280000E000BF00BF002202A9044887
:102E3000006800F0CBFE00287FF47FAF06B070BDC5
:102E4000BC000020F8B505460C4600F023FC68469F
:102E500000F05EF80646009820BB44B9B54206D89B
:102E600001F078FA31462846FFF742FF1CE03CB1FA
:102E70000E480068006808B9012000E00020044600
:102E8000A91B22460A48006800F040FA01F062FAE5
:102E900050B94FF0805007490860BFF34F8FBFF320
:102EA0006F8F01E001F056FAF8BD0000B800002075
:102EB000BC00002004ED00E070B504460D46164647
:102EC00004E0A06905442046216A8847A0694119A9
:102ED0002B4632462046FFF7C3FE0028F1D170BDD5
:102EE00009480068006808B9012000E0002020B10E
:102EF0004FF0FF300549086005E003480068C068EE
:102F0000006802490860704778000020A400002093
:102F100070B5044601F016F805460748006885427A
:102F200004D200F00BF80120206001E000202060B6
:102F300001480560284670BDC400002070B508E057
:102F40000D480068C06804684FF0FF312046FFF765
:102F5000CFFE09480068006808B9012000E00020A1
:102F60000028EDD00448056804480068024908605C
:102F70000248056070BD0000B4000020B8000020C9
:102F800000BF102080F31188BFF34F8FBFF36F8F06
:102F900000BF00BFFEE710B50346002022B903EAD8
:102FA000010434B1012004E003EA01048C4200D1A1
:102FB000012010BD08B500BF6846FFF721FD04469B
:102FC00020460099FFF73EFFFFF7B4FEF4E770B527
:102FD000044600F035F994F9455010E0606A08B9EC
:102FE000012000E0002038B904F1240001F02EF99E
:102FF00018B100F0D7F900E003E0681E45B2002DDB
:10300000ECDC00BFFF2084F8450000F02BF900F055
:1030100017F994F9445010E0206908B9012000E044
:10302000002048B904F1100001F010F908B100F0D7
:10303000B9F9681E45B200E001E0002DECDC00BFEC
:10304000FF2084F8440000F00DF970BD2DE9F04731
:1030500005464FF0000900F01DFB3048006808B934
:10306000FFF7E2FC75B105F00700C0F11008C8F1E8
:10307000FF30A84201D2012000E0002008B94544F9
:1030800000E00025012000EBE570002841D0002D74
:103090003FD02348006885423BD8224E3046046822
:1030A00001E0264624686068A84202D22068002811
:1030B000F7D11A48006884422BD0306800F1080923
:1030C000206830606068401B102807D96719606865
:1030D000401B786065603846FFF78EFD10496068D8
:1030E0000968081A0E490860084600680E49096810
:1030F000884203D20A4800680B490860606840F0C3
:10310000004060600020206008480068401C0749BB
:10311000086001F01FF94846BDE8F0875C00002018
:10312000600000205400002064000020680000209F
:103130000648006830B10549096801F15000096D81
:10314000491C0160014800687047000074000020BD
:10315000001F4FF080730360001F21F00103036024
:10316000001F034B036014380260203870470000D2
:10317000812F000801460A69D1E901309860D1E940
:10318000010358605068884201D18868506000206F
:1031900008611068401E1060106870470549096892
:1031A000886904490968C96AC1F13801014A12688D
:1031B0009161704774000020034B0360034B0B6068
:1031C000802313607047000044080020A0080020FE
:1031D000034B0360034B0B605023136070470000E8
:1031E000A00A0020FC0A0020704700F1080141609D
:1031F0004FF0FF31816000F10801C16001610021E1
:103200000160704700210161704710B502460B68EC
:103210005C1C0CB9106907E002F1080000E040688E
:10322000446824689C42FAD944684C604C68A160A8
:10323000886041600A611468641C146010BD00005D
:1032400000BF102080F31188BFF34F8FBFF36F8F43
:1032500000BF03480068401C014908607047000037
:103260007000002006480068401E054908600846B6
:10327000006820B9002080F3118800BF00BF7047AC
:103280007000002070B506463546E6B1083D2C4674
:103290006068C00FB8B12068A8B9606820F000402D
:1032A000606000F0F7F90849606809680844064959
:1032B00008602046FFF7A0FC04480068401C034952
:1032C000086001F047F870BD600000206C0000202D
:1032D00000204FF0E02108618861064800684FF443
:1032E0007A71B0FBF1F0401E4FF0E02148610720F9
:1032F000086170474000002070B50446254695F8E7
:10330000460010B92846FFF7BDFF70BD2DE9F0411A
:1033100005460E4617462C46FFF792FF94F94400E7
:10332000401C10B9002084F8440094F94500401C6A
:1033300010B9002084F84500FFF794FFA06B28B96E
:103340003A46314604F1240000F042F82046FFF7E7
:103350003EFEBDE8F081000070B50446002544B192
:1033600000F098F900212046FFF7C0F900F0F2FFC5
:1033700005463DB94FF0805003490860BFF34F8FB9
:10338000BFF36F8F70BD000004ED00E003490968D2
:103390000160034909684160704700009C000020FB
:1033A0008800002001200149086070479800002033
:1033B00070B505460C460548016818312846FFF7E8
:1033C00024FF01212046FFF791F970BD7400002011
:1033D00070B504460E46154660680F490968C86115
:1033E0000D49826809680A620B49096818318268C8
:1033F00051600949096818318160074909688C6280
:103400002168491C21600DB14FF0FF362946304636
:10341000FFF76CF970BD00007400002070B5044621
:103420000D46164645F000400F49096888616068FE
:103430000D490968C8610C49826809680A620A492D
:10344000096818318268516007490968183181603C
:10345000054909688C622168491C216001213046B8
:10346000FFF744F970BD0000740000202DE9F0471B
:1034700006460F4634464FF00109002E4FD0E06C4F
:10348000B84201D23D4600E0E56CE06AA84246D071
:10349000206D012843D1D4F82C80E562A06900F0AA
:1034A000004010B9C5F13800A06108EB88011D4A41
:1034B00002EB81016069884201D1012000E0002017
:1034C00068B3201DFFF756FE1749E06A0968884275
:1034D00002D91549E06A0860E16A01EB8101114AED
:1034E00002EB81014868A0608268E260211D826869
:1034F00051608160E16A01EB81010A4A02EB8102BD
:103500006261E16A01EB8101064A52F82110491C0F
:10351000E26A02EB8202034B43F8221000BFBDE8CF
:10352000F08700003C2C00208C00002070B5024683
:103530000B4643F000411160D0681169D2E9015493
:10354000AC60D2E901456C604C68944201D194684A
:103550004C60002414610C68641E0C604169D0E961
:103560000245A560D0E902546560041D4D68A5427E
:1035700001D1C4684C60002545610C68641E0C6074
:10358000194CC16A2468A14202D9174CC16A216052
:10359000C46A04EB8404154D05EB84046168816002
:1035A0008D68C560041D8D686C608C60C46A04EB16
:1035B00084040E4D05EB84054561C46A04EB840464
:1035C0000A4D55F82440641CC56A05EB8505074E75
:1035D00046F82540064CC16A2468E46AA14202D933
:1035E0000121044C216070BD8C0000203C2C002087
:1035F000740000209800002010B586B000200590CF
:10360000049003AA04A905A8FFF7D6FD0022DDE96E
:1036100004101346CDE90021029016A11748039A21
:1036200000F054FC164908600846006808B10124FF
:1036300000E00024012C02D100F038FF0446012CE8
:1036400014D100BF102080F31188BFF34F8FBFF358
:103650006F8F00BF4FF0FF300A49086001200A4910
:10366000086000200949086000F032F90848006845
:1036700006B010BD49444C4500000000992A0008DE
:10368000A8000020A4000020900000208800002056
:10369000AC00002002480068401C014908607047E7
:1036A000B000002070B52648006818B101202549F7
:1036B000086043E000202349086023480068046B49
:1036C0004FF0A5352068B0F1A53F0BD16068B0F18F
:1036D000A53F07D1A068B0F1A53F03D1E068B0F1E4
:1036E000A53F05D01848016834310068FFF77CFD1C
:1036F0001648016800E0491E01EB8100144A52F8A7
:10370000200008B9012000E000200028F3D101EBDF
:1037100081020F4B03EB820042685268426000F165
:1037200008024368934202D142685268426042688C
:10373000D268054B1A600548016000BF70BD0000EB
:10374000B000002098000020740000208C000020B1
:103750003C2C002010B52020FFF778FC044634B143
:1037600000202060201DFFF740FD0020207720462C
:1037700010BD2DE9FE4F06468946002001903446D3
:10378000009004F1040B0BF108000290FFF782FF98
:10379000DBF80C70206840EA0900206026E0D7F8CA
:1037A00004A03D680020009005F07F4825F07F458B
:1037B00008F0806028B92068284040B101200090BE
:1037C00005E020682840A84201D10120009000981F
:1037D00058B108F0807010B101982843019020681A
:1037E00040F000713846FFF7A1FE57460298874225
:1037F000D5D1206801998843206000F0ABFD206896
:10380000BDE8FE8F2DE9FF5F80460E4617469946BC
:10381000DDF838A044464FF0000B00200190FFF780
:1038200039FF206800904A4631460098FFF7B3FB05
:103830000390039830B1009DDA46CFB12068B043C1
:10384000206015E0BAF1000F03D1009D0120019026
:103850000EE00FB14BF0807BB9F1000F01D04BF0BF
:10386000806B46EA0B015246201DFFF7D7FD00256D
:1038700000F070FD0290BAF1000F22D0029838B922
:103880004FF0805011490860BFF34F8FBFF36F8F27
:10389000FFF784FC054605F0007080B9FFF7D0FC07
:1038A00025684A4631462846FFF775FB18B117B11F
:1038B0002068B043206001200190FFF7D3FC25F081
:1038C0007F45284604B0BDE8F09F000004ED00E00D
:1038D00010B50A48006840F47F00084908600846AF
:1038E000006840F07F400860FFF7F2FC00200449C8
:1038F0000860FCF7B5FC002010BD000020ED00E0E2
:103900007000002010B500BF102080F31188BFF3B5
:103910004F8FBFF36F8F00BF00F01AFB18B14FF04D
:1039200080500449086000BF002080F3118800BF68
:1039300010BD000004ED00E02DE9F0410446012631
:10394000002722460021012000F01CF805462846E9
:10395000FFF7B6F82846BDE8F0812DE9F8430446A4
:103960000D4601274FF000082B460022114601208A
:10397000009400F030F806463046FFF7A1F83046D4
:10398000BDE8F8832DE9F84305460E4617460024A6
:10399000F5B1601EB0FBF5F0B04219D305FB06F09F
:1039A00010F1510F14D805FB06F909F15000FFF78B
:1039B0004DFB044664B1A04608F15008002084F88D
:1039C00046003B464246314628460094FFF787F8BA
:1039D0002046BDE8F8832DE9F84380460D4616469B
:1039E0001C46DDF820900027B8F1000F0FD074B10D
:1039F00006B165B106B955B92746012087F84600DA
:103A00004B463246294640460097FFF768F838464D
:103A1000BDE8F8832DE9F04105460E4601272C4606
:103A2000002C41D0E06B00283ED0B91EE06BB1FB0A
:103A3000F0F0216C884237D3FFF702FCD4E90F1273
:103A4000206801FB0200A0600020A0632068606085
:103A5000E06B401E226C216800FB0211E160FF2038
:103A600084F8440084F845009EB9206908B9012013
:103A700000E00020A8B904F1100000F0E7FB80B1DD
:103A80004FF080500A490860BFF34F8FBFF36F8F2C
:103A900007E004F11000FFF7A8FB04F12400FFF792
:103AA000A4FBFFF7DFFB00E000273846BDE8F0810C
:103AB00004ED00E02DE9FF4383B0074688461D462C
:103AC0004FF000093C4600BFFFF7BAFBA06BE16B6B
:103AD000884201D3022D28D12A4641462046FEF7CE
:103AE00032FF0646606A08B9012000E0002068B98C
:103AF00004F1240000F0AAFB88B14FF08050324955
:103B00000860BFF34F8FBFF36F8F08E03EB14FF0F7
:103B100080502D490860BFF34F8FBFF36F8FFFF7C1
:103B2000A1FB012007B0BDE8F083059818B9FFF7A5
:103B300099FB0020F6E7B9F1000F04D101A8FFF7C7
:103B400025FC4FF00109FFF78DFBFFF7A3FDFFF701
:103B500077FB94F94400401C10B9002084F844001D
:103B600094F94500401C10B9002084F84500FFF787
:103B700079FB05A901A800F043F9F0B92046FFF749
:103B8000A8F8A0B104F110000599FFF711FC204638
:103B9000FFF71DFA00F0DEFB002895D14FF08050B2
:103BA00009490860BFF34F8FBFF36F8F8CE7204642
:103BB000FFF70DFA00F0CEFB86E72046FFF707FA85
:103BC00000F0C8FB0020ADE704ED00E02DE9F7416F
:103BD00083B005460F464FF000082C4600BFFFF7A4
:103BE0002FFBA66BF6B139462046FEF797FE701EF6
:103BF000A063206908B9012000E0002060B904F149
:103C0000100000F023FB38B14FF080502F490860BE
:103C1000BFF34F8FBFF36F8FFFF724FB012006B078
:103C2000BDE8F081059818B9FFF71CFB0020F6E706
:103C3000B8F1000F04D101A8FFF7A8FB4FF001086D
:103C4000FFF710FBFFF726FDFFF7FAFA94F944009F
:103C5000401C10B9002084F8440094F94500401C31
:103C600010B9002084F84500FFF7FCFA05A901A867
:103C700000F0C6F8F0B92046FFF71EF8A0B104F135
:103C800024000599FFF794FB2046FFF7A0F900F008
:103C900061FB0028A3D14FF080500C490860BFF3AE
:103CA0004F8FBFF36F8F9AE72046FFF790F900F030
:103CB00051FB94E72046FFF78AF900F04BFB2046C2
:103CC000FEF7FAFF00288AD00020A8E704ED00E004
:103CD0002DE9F34182B0054600272C46B84600BFC7
:103CE000FFF7AEFAA66BFEB1701EA063206810B994
:103CF000FFF71EFAA060206908B9012000E000204B
:103D000060B904F1100000F0A1FA38B14FF0805012
:103D10003A490860BFF34F8FBFF36F8FFFF7A2FAE6
:103D2000012004B0BDE8F081039818B9FFF79AFAB2
:103D30000020F6E71FB96846FFF728FB0127FFF7C9
:103D400091FAFFF7A7FCFFF77BFA94F94400401CB7
:103D500010B9002084F8440094F94500401C10B9C3
:103D6000002084F84500FFF77DFA03A9684600F0BB
:103D700047F840BB2046FEF79FFFF0B1206838B9F6
:103D8000FFF75EFAA06800F0F5F98046FFF76AFADF
:103D900004F124000399FFF70BFB2046FFF717F906
:103DA00000F0D8FA00289BD14FF0805013490860EA
:103DB000BFF34F8FBFF36F8F92E72046FFF707F9EE
:103DC00000F0C8FA8CE72046FFF701F900F0C2FACC
:103DD0002046FEF771FF002882D0B8F1000F0BD00B
:103DE000FFF72EFA2046FEF701FE06463146A06890
:103DF000FFF73CFBFFF736FA002092E704ED00E006
:103E000070B506460C46FFF71BFA13480268706847
:103E1000131A2068401C08B9002519E00F493068C2
:103E20000968884206D07068904203D801250020B6
:103E300020600DE02068984207D92068C01A2060F1
:103E40003046FFF7A3FA002502E00020206001259C
:103E5000FFF708FA284670BD880000209C0000206B
:103E60002DE9FF4F85B0804689461746DDE912AB44
:103E7000B800FFF7EBF8064676B15C20FFF7E6F8EE
:103E800004462CB15C212046FCF7C5FA266304E009
:103E90003046FFF7F7F900E000248CB1002084F8E9
:103EA0005900CDE900ABCDE902403A4649464046CB
:103EB000089BFEF729FE2046FEF76AFC012501E07B
:103EC0004FF0FF35284609B0BDE8F08F2DE9F04FDF
:103ED00085B00746884691469A46DDE90EB6109CA5
:103EE000CCB1C6B125465C212846FCF794FA2E6376
:103EF000022085F85900002004A953464A46CDE91E
:103F000000B1CDE9025041463846FEF7FDFD284696
:103F1000FEF73EFC01E000200490049805B0BDE8E7
:103F2000F08F00000549096809B9012005E004493E
:103F3000096809B9022000E00020704790000020C5
:103F4000B000002001490868704700008800002088
:103F50002DE9F04100275748006800287DD15648D8
:103F60000068451C544805608DB95448D0F800805D
:103F700053480068514908605148C0F800805148D2
:103F80000068401C4F490860FEF7AAFF00BF4E487A
:103F90000068854275D300BF48480068006808B9CA
:103FA000012000E0002020B14FF0FF3046490860BA
:103FB00066E042480068C068C4686668B54202D2DC
:103FC000414806605CE06069D4E902128A60D4E985
:103FD00002214A60211D42688A4201D1E1684160A4
:103FE000002262610168491E0160A06A98B1A06A5E
:103FF000D4E907128A60D4E907214A6004F1180164
:1040000042688A4201D1216A41600022A2620168AD
:10401000491E016000BF2D49E06A0968884202D943
:104020002A49E06A0860E16A01EB8101284A02EB53
:1040300081014868A0608268E260211D8268516049
:104040008160E16A01EB8101214A02EB8102626138
:10405000E16A01EB81011E4A00E022E052F82110E2
:10406000491CE26A02EB8202194B43F822101949FB
:10407000E06A0968C96A88428ED901278CE700E0A6
:1040800000BF14480068C06A00EB8000104951F876
:104090002000012800D901270F48006800B101273E
:1040A00004E00E480068401C0C4908603846BDE832
:1040B000F0810000B000002088000020780000207F
:1040C0007C0000209C000020A40000208C00002028
:1040D0003C2C002074000020980000209400002058
:1040E00070B505462C460026002D3CD0206D401EA4
:1040F0002065E16CE06A884235D0206D98BB201DB8
:10410000FFF738F8E06CE062E06AC0F13800A061C7
:104110001649E06A0968884202D91449E06A0860D1
:10412000E16A01EB8101124A02EB81014868A0605B
:104130008268E260211D826851608160E16A01EB62
:1041400081010B4A02EB81026261E16A01EB8101AC
:10415000074A52F82110491CE26A02EB8202044B22
:1041600043F822100126304670BD00008C0000206C
:104170003C2C002070B505462C460026002D5CD056
:104180002F49E06A0968C96A88424FD2A06900F0E5
:10419000004028B92A480068C06AC0F13800A06110
:1041A000E16A01EB8101274A02EB810160698842E3
:1041B00001D1012000E0002088B3201DFEF7DAFFC6
:1041C0001F480068C06AE0621F49E06A09688842C7
:1041D00002D91D49E06A0860E16A01EB8101194AD0
:1041E00002EB81014868A0608268E260211D82685C
:1041F00051608160E16A01EB8101124A02EB8102A8
:104200006261E16A01EB81010E4A52F82110491CFA
:10421000E26A02EB82020B4B43F8221004E0FFE754
:1042200007480068C06AE062012606E00449E06CC5
:104230000968C96A884200D20126304670BD000074
:10424000740000203C2C00208C00002070B5034638
:10425000D868C168886AD1E90745A560D1E90754E3
:10426000656001F118044568A54201D10C6A4460FB
:1042700000258D620468641E0460304800680028D0
:104280003CD14869D1E90245A560D1E90254656095
:104290000C1D4568A54201D1CC68446000254D61E4
:1042A0000468641E0460264CC86A2468A04202D9CF
:1042B000234CC86A2060CC6A04EB8404214D05EBD2
:1042C0008404606888608568CD600C1D85686C60BA
:1042D0008460CC6A04EB84041A4D05EB84054D61BF
:1042E000CC6A04EB8404174D55F82440641CCD6A55
:1042F00005EB8505134E46F8254010E0124C60682A
:10430000C86185680D6201F1180485686C6084607D
:104310000D4D8D622C462468641C2C6000BF0B4C34
:10432000C86A2468E46AA04204D901220120084C2A
:10433000206000E00022104670BD0000B0000020A8
:104340008C0000203C2C0020C43000207400002091
:104350009800002070B500240026FEF771FF4A483F
:104360000068401E484908600846006800287DD162
:1043700046480068002879D05AE04548C068C468BB
:10438000A06AD4E907128A60D4E907214A6004F1DF
:10439000180142688A4201D1216A41600022A2626A
:1043A0000168491E01606069D4E902128A60D4E99B
:1043B00002214A60211D42688A4201D1E1684160C0
:1043C000002262610168491E01603249E06A0968A1
:1043D000884202D92F49E06A0860E16A01EB810155
:1043E0002D4A02EB81014868A0608268E260211DCD
:1043F000826851608160E16A01EB8101264A02EB2B
:1044000081026261E16A01EB8101234A52F82110C5
:10441000491CE26A02EB82021F4B43F822101F493B
:10442000E06A0968C96A884202D301201C49086011
:104430001748006808B9012000E0002000289CD03F
:104440000CB1FEF74DFD1748056865B100BFFFF7D9
:104450007FFD10B10120124908606D1E002DF6D1BC
:104460000020104908600E48006800E008E038B1FC
:10447000012630070C490860BFF34F8FBFF36F8FE1
:10448000FEF7F0FE304670BDB00000208400002032
:10449000C43000208C0000203C2C00207400002040
:1044A000980000209400002004ED00E010B586B0D4
:1044B0000024FEF7E1F910480068D0B10020059013
:1044C000049003AA04A905A8FEF782FE2822DDE9CC
:1044D00004100023CDE90021029008A10948039AA5
:1044E000FFF7F4FC084908600846006800B10124A1
:1044F00000BF204606B010BDBC000020546D7220E5
:1045000053766300B52F0008C000002010B50029C5
:104510000AD00878002807D005487844FBF7A2FFA6
:10452000002801D0002010BD0248784410BD0000D2
:10453000460100003E01000010B500290AD00878AD
:10454000002807D005487844FBF78CFF002801D0ED
:10455000002010BD0248784410BD00003601000064
:104560002E010000FCF71DBC000000000000000050
:104570003031323334353637383941424344454699
:104580004030580030313233343536373839616293
:104590006364656640307800040000080000000095
:1045A00000000002000100001000000002400000B6
:1045B000000000A00000000005400000000000C84E
:1045C000000000000C4000000000409C00000000C3
:1045D000194000000020BCBE000000003440000074
:1045E000BFC91B8E00000004B5400000504BCFD067
:1045F0006607E2CF010000006C4100003E8251AA34
:10460000DFEEA73401000000D9420000DCB5A0E2D3
:104610003A301F97FFFFFFFFB4450000FD25A0C8FB
:10462000E9A3C14FFFFFFFFFFF3F00000000008034
:1046300000000000FF3F00000000008000000000BC
:104640008C47000800000020C80000002801000876
:1046500054480008C80000206037000044010008EA
:104660001C00000043000000F8FFFFFF0C000000EA
:104670000E0000000F0000002E00000010010000DE
:1046800043000000F8FFFFFF004040404040404032
:104690004040414141414140404040404040404015
:1046A00040404040404040404005020202020202B9
:1046B0000202020202020202022020202020202008
:1046C000202020020202020202029090909090901C
:1046D00010101010101010101010101010101010DA
:1046E000101010100202020202028888888888884E
:1046F000080808080808080808080808080808083A
:104700000808080802020202400000000000000041
:104710000000000000000000000000000000000099
:104720000000000000000000000000000000000089
:104730000000000000000000000000000000000079
:104740000000000000000000000000000000000069
:104750000000000000000000000000000000000059
:104760000000000000000000000000000000000049
:104770000000000000000000000000000000000039
:104780000000000000000000000000000000000029
:104790000000000000000000000000000000000019
:1047A0000038014000000000000000000000000090
:1047B00000000000000000000000000001020304EF
:1047C00001020304060708090204060800A24A04BD
:1047D00000000000000000000102030406070809B1
:1047E00000000000000000000000000000000000C9
:1047F000000000000000000000000000AAAAAAAA11
:1048000000000000000000000000000000000000A8
:104810000000000000000000000000000000000098
:104820000000000000000000000000000000000088
:104830000000000000000000370000000000000041
:104840000000000000000000000000000000000068
:044850000000000064
:04000005080000ED02
:00000001FF
