Component: ARM Compiler 5.06 update 3 (build 300) Tool: armlink [4d35c9]

==============================================================================

Section Cross References

    main.o(i.main) refers to system.o(i.SYS_Init) for SYS_Init
    main.o(i.main) refers to system.o(i.SYS_Run) for SYS_Run
    system.o(i.Button) refers to ili9341_gui.o(i.TFT_DrawRectangle) for TFT_DrawRectangle
    system.o(i.Button) refers to ili9341_gui.o(i.TFT_Gui_Fill) for TFT_Gui_Fill
    system.o(i.Button) refers to ili9341_gui.o(i.TFT_Print_Center) for TFT_Print_Center
    system.o(i.Button) refers to delay_sys.o(i.Delay_ms) for Delay_ms
    system.o(i.Button) refers to ili9341_driver.o(.data) for POINT_COLOR
    system.o(i.KeyBoard) refers to ili9341_gui.o(i.TFT_DrawRectangle) for TFT_DrawRectangle
    system.o(i.KeyBoard) refers to ili9341_driver.o(.data) for POINT_COLOR
    system.o(i.SD_ReadBmp) refers to ff.o(i.f_mount) for f_mount
    system.o(i.SD_ReadBmp) refers to ff.o(i.f_open) for f_open
    system.o(i.SD_ReadBmp) refers to ff.o(i.f_read) for f_read
    system.o(i.SD_ReadBmp) refers to ili9341_gui.o(i.TFT_Gui_Img) for TFT_Gui_Img
    system.o(i.SD_ReadBmp) refers to ff.o(i.f_close) for f_close
    system.o(i.SD_ReadBmp) refers to system.o(.bss) for fs
    system.o(i.SD_ReadBmp) refers to system.o(.data) for res
    system.o(i.SD_ReadBmp_Normal) refers to ff.o(i.f_mount) for f_mount
    system.o(i.SD_ReadBmp_Normal) refers to ff.o(i.f_open) for f_open
==============================================================================

Removing Unused input sections from the image.

    Removing main.o(.rev16_text), (4 bytes).
    Removing main.o(.revsh_text), (4 bytes).
    Removing main.o(.rrx_text), (6 bytes).
    Removing system.o(.rev16_text), (4 bytes).
    Removing system.o(.revsh_text), (4 bytes).
    Removing system.o(.rrx_text), (6 bytes).
    Removing system.o(i.Button), (168 bytes).
    Removing system.o(i.KeyBoard), (152 bytes).
    Removing system.o(i.SD_ReadBmp_Normal), (252 bytes).
    Removing system.o(i.Test_Circle), (228 bytes).
    Removing system.o(i.Test_Fill), (112 bytes).
    Removing system.o(i.Test_FillRec), (404 bytes).
    Removing system.o(i.Test_Font_String), (128 bytes).
    Removing system.o(i.Test_Font_String_Bold), (120 bytes).
    Removing system.o(i.Test_Main), (140 bytes).
    Removing system.o(i.Test_Print_Num), (80 bytes).
    Removing system.o(i.Test_TouchV1), (200 bytes).
    Removing system.o(i.Test_Triangle), (484 bytes).
==============================================================================

Image Symbol Table

    Local Symbols

    Symbol Name                              Value     Ov Type        Size  Object(Section)

    ../clib/angel/boardlib.s                 0x00000000   Number         0  boardinit1.o ABSOLUTE
    ../clib/angel/boardlib.s                 0x00000000   Number         0  boardinit2.o ABSOLUTE
    ../clib/angel/boardlib.s                 0x00000000   Number         0  boardinit3.o ABSOLUTE
    ../clib/angel/boardlib.s                 0x00000000   Number         0  boardshut.o ABSOLUTE
    ../clib/angel/handlers.s                 0x00000000   Number         0  __scatter_zi.o ABSOLUTE
    ../clib/angel/handlers.s                 0x00000000   Number         0  __scatter_copy.o ABSOLUTE
    ../clib/angel/kernel.s                   0x00000000   Number         0  __rtentry4.o ABSOLUTE
    ../clib/angel/kernel.s                   0x00000000   Number         0  __rtentry2.o ABSOLUTE
    ../clib/angel/kernel.s                   0x00000000   Number         0  __rtentry.o ABSOLUTE
    ../clib/angel/kernel.s                   0x00000000   Number         0  rtexit.o ABSOLUTE
    ../clib/angel/kernel.s                   0x00000000   Number         0  rtexit2.o ABSOLUTE
    ../clib/angel/rt.s                       0x00000000   Number         0  rt_raise.o ABSOLUTE
    ../clib/angel/scatter.s                  0x00000000   Number         0  __scatter.o ABSOLUTE
    ../clib/angel/startup.s                  0x00000000   Number         0  __main.o ABSOLUTE
    ../clib/angel/sys.s                      0x00000000   Number         0  sys_stackheap_outer.o ABSOLUTE
    ../clib/angel/sys.s                      0x00000000   Number         0  use_no_semi.o ABSOLUTE
    ../clib/angel/sys.s                      0x00000000   Number         0  indicate_semi.o ABSOLUTE
    ../clib/angel/sys.s                      0x00000000   Number         0  libspace.o ABSOLUTE
    ../clib/angel/sysapp.c                   0x00000000   Number         0  sys_command.o ABSOLUTE
    ../clib/angel/sysapp.c                   0x00000000   Number         0  sys_wrch.o ABSOLUTE
    ../clib/angel/sysapp.c                   0x00000000   Number         0  sys_exit.o ABSOLUTE
    ../clib/armsys.c                         0x00000000   Number         0  argv_veneer.o ABSOLUTE
    ../clib/armsys.c                         0x00000000   Number         0  argv_veneer.o ABSOLUTE
    ../clib/armsys.c                         0x00000000   Number         0  _get_argv_nomalloc.o ABSOLUTE
    ../clib/armsys.c                         0x00000000   Number         0  no_argv.o ABSOLUTE
    ../clib/heapalloc.c                      0x00000000   Number         0  hrguard.o ABSOLUTE
    ../clib/heapaux.c                        0x00000000   Number         0  heapauxi.o ABSOLUTE
    ../clib/libinit.s                        0x00000000   Number         0  libshutdown2.o ABSOLUTE
    ../clib/libinit.s                        0x00000000   Number         0  libinit.o ABSOLUTE
    ../clib/libinit.s                        0x00000000   Number         0  libinit2.o ABSOLUTE
    ../clib/libinit.s                        0x00000000   Number         0  libshutdown.o ABSOLUTE
    ../clib/misc.s                           0x00000000   Number         0  printf_stubs.o ABSOLUTE
    ../clib/printf.c                         0x00000000   Number         0  __printf_nopercent.o ABSOLUTE
    ../clib/printf.c                         0x00000000   Number         0  _printf_dec.o ABSOLUTE
    ../clib/printf.c                         0x00000000   Number         0  noretval__2printf.o ABSOLUTE
    ../clib/printf.c                         0x00000000   Number         0  __2sprintf.o ABSOLUTE
    ../clib/printf.c                         0x00000000   Number         0  __printf_ss_wp.o ABSOLUTE
    ../clib/printf.c                         0x00000000   Number         0  __printf_flags_wp.o ABSOLUTE
    ../clib/printf.c                         0x00000000   Number         0  __printf_wp.o ABSOLUTE
    ../clib/printf.c                         0x00000000   Number         0  __printf_flags_ss.o ABSOLUTE
    ../clib/printf.c                         0x00000000   Number         0  __printf_ss.o ABSOLUTE
    ../clib/printf.c                         0x00000000   Number         0  __2printf.o ABSOLUTE
    ../clib/printf.c                         0x00000000   Number         0  __printf_flags.o ABSOLUTE
    ../clib/printf.c                         0x00000000   Number         0  _printf_char_common.o ABSOLUTE
    ../clib/printf.c                         0x00000000   Number         0  _printf_intcommon.o ABSOLUTE
    ../clib/printf.c                         0x00000000   Number         0  _printf_str.o ABSOLUTE
    ../clib/printf.c                         0x00000000   Number         0  __printf.o ABSOLUTE
    ../clib/printf.c                         0x00000000   Number         0  noretval__2sprintf.o ABSOLUTE
    ../clib/printf.c                         0x00000000   Number         0  __printf_flags_ss_wp.o ABSOLUTE
    ../clib/printf.c                         0x00000000   Number         0  _sputc.o ABSOLUTE
    ../clib/printf.c                         0x00000000   Number         0  _printf_char.o ABSOLUTE
    ../clib/printf.c                         0x00000000   Number         0  _printf_char_file.o ABSOLUTE
    ../clib/printf_percent.s                 0x00000000   Number         0  _printf_percent.o ABSOLUTE
    ../clib/printf_percent.s                 0x00000000   Number         0  _printf_s.o ABSOLUTE
    ../clib/printf_percent.s                 0x00000000   Number         0  _printf_d.o ABSOLUTE
    ../clib/printf_percent.s                 0x00000000   Number         0  _printf_percent_end.o ABSOLUTE
    ../clib/signal.c                         0x00000000   Number         0  defsig_stak_inner.o ABSOLUTE
    ../clib/signal.c                         0x00000000   Number         0  defsig_rtred_inner.o ABSOLUTE
    ../clib/signal.c                         0x00000000   Number         0  defsig_fpe_inner.o ABSOLUTE
    ../clib/signal.c                         0x00000000   Number         0  defsig_abrt_inner.o ABSOLUTE
    ../clib/signal.c                         0x00000000   Number         0  defsig_general.o ABSOLUTE
    ../clib/signal.c                         0x00000000   Number         0  __raise.o ABSOLUTE
    ../clib/signal.c                         0x00000000   Number         0  defsig_rtmem_inner.o ABSOLUTE
    ../clib/signal.c                         0x00000000   Number         0  defsig_exit.o ABSOLUTE
    ../clib/signal.c                         0x00000000   Number         0  defsig_rtmem_formal.o ABSOLUTE
    ../clib/signal.c                         0x00000000   Number         0  defsig_segv_inner.o ABSOLUTE
    ../clib/signal.c                         0x00000000   Number         0  defsig_other.o ABSOLUTE
    ../clib/signal.c                         0x00000000   Number         0  defsig_rtmem_outer.o ABSOLUTE
    ../clib/signal.c                         0x00000000   Number         0  defsig_cppl_inner.o ABSOLUTE
    ../clib/signal.c                         0x00000000   Number         0  defsig_pvfn_inner.o ABSOLUTE
    ../clib/signal.s                         0x00000000   Number         0  defsig.o ABSOLUTE
    ../clib/stdio.c                          0x00000000   Number         0  ferror.o ABSOLUTE
    ../clib/stdio.c                          0x00000000   Number         0  ferror_locked.o ABSOLUTE
    ../clib/stdlib.c                         0x00000000   Number         0  exit.o ABSOLUTE
    ../clib/string.c                         0x00000000   Number         0  strlen.o ABSOLUTE
    ../fplib/daddsub.s                       0x00000000   Number         0  daddsub_clz.o ABSOLUTE
    ../fplib/dfixu.s                         0x00000000   Number         0  dfixu.o ABSOLUTE
    ../fplib/dflt.s                          0x00000000   Number         0  dflt_clz.o ABSOLUTE
    ../fplib/dmul.s                          0x00000000   Number         0  dmul.o ABSOLUTE
    ../fplib/dnaninf.s                       0x00000000   Number         0  dnaninf.o ABSOLUTE
    ../fplib/dretinf.s                       0x00000000   Number         0  dretinf.o ABSOLUTE
    ../fplib/fpinit.s                        0x00000000   Number         0  fpinit.o ABSOLUTE
    ../fplib/usenofp.s                       0x00000000   Number         0  usenofp.o ABSOLUTE
    ..\LIBRARY\ILI9341\ILI9341_Define.c      0x00000000   Number         0  ili9341_define.o ABSOLUTE
    ..\LIBRARY\ILI9341\ILI9341_Driver.c      0x00000000   Number         0  ili9341_driver.o ABSOLUTE
    ..\LIBRARY\ILI9341\ILI9341_Gui.c         0x00000000   Number         0  ili9341_gui.o ABSOLUTE
    ..\LIBRARY\ILI9341\Touchscreen.c         0x00000000   Number         0  touchscreen.o ABSOLUTE
    ..\LIBRARY\SDCARD\FATFS_V0.09\src\ccsbcs.c 0x00000000   Number         0  ccsbcs.o ABSOLUTE
    ..\LIBRARY\SDCARD\FATFS_V0.09\src\diskio.c 0x00000000   Number         0  diskio.o ABSOLUTE
    ..\LIBRARY\SDCARD\FATFS_V0.09\src\ff.c   0x00000000   Number         0  ff.o ABSOLUTE
    ..\LIBRARY\SDCARD\SPI_SD_Card\SPI_MSD0_Driver.c 0x00000000   Number         0  spi_msd0_driver.o ABSOLUTE
    ..\LIBRARY\SDCARD\lib_sdcard.c           0x00000000   Number         0  lib_sdcard.o ABSOLUTE
    ..\USE\delay_sys.c                       0x00000000   Number         0  delay_sys.o ABSOLUTE
    ..\USE\usart.c                           0x00000000   Number         0  usart.o ABSOLUTE
    ..\\LIBRARY\\ILI9341\\ILI9341_Define.c   0x00000000   Number         0  ili9341_define.o ABSOLUTE
    ..\\LIBRARY\\ILI9341\\ILI9341_Driver.c   0x00000000   Number         0  ili9341_driver.o ABSOLUTE
    ..\\LIBRARY\\ILI9341\\ILI9341_Gui.c      0x00000000   Number         0  ili9341_gui.o ABSOLUTE
    ..\\LIBRARY\\ILI9341\\Touchscreen.c      0x00000000   Number         0  touchscreen.o ABSOLUTE
    ..\\LIBRARY\\SDCARD\\FATFS_V0.09\\src\\diskio.c 0x00000000   Number         0  diskio.o ABSOLUTE
    ..\\LIBRARY\\SDCARD\\SPI_SD_Card\\SPI_MSD0_Driver.c 0x00000000   Number         0  spi_msd0_driver.o ABSOLUTE
    ..\\LIBRARY\\SDCARD\\lib_sdcard.c        0x00000000   Number         0  lib_sdcard.o ABSOLUTE
    ..\\USE\\delay_sys.c                     0x00000000   Number         0  delay_sys.o ABSOLUTE
    ..\\USE\\usart.c                         0x00000000   Number         0  usart.o ABSOLUTE
    C:\Keil_v5\ARM\PACK\Keil\STM32F1xx_DFP\2.1.0\Device\StdPeriph_Driver\src\misc.c 0x00000000   Number         0  misc.o ABSOLUTE
    C:\Keil_v5\ARM\PACK\Keil\STM32F1xx_DFP\2.1.0\Device\StdPeriph_Driver\src\stm32f10x_adc.c 0x00000000   Number         0  stm32f10x_adc.o ABSOLUTE
    C:\Keil_v5\ARM\PACK\Keil\STM32F1xx_DFP\2.1.0\Device\StdPeriph_Driver\src\stm32f10x_dma.c 0x00000000   Number         0  stm32f10x_dma.o ABSOLUTE
    C:\Keil_v5\ARM\PACK\Keil\STM32F1xx_DFP\2.1.0\Device\StdPeriph_Driver\src\stm32f10x_exti.c 0x00000000   Number         0  stm32f10x_exti.o ABSOLUTE
    C:\Keil_v5\ARM\PACK\Keil\STM32F1xx_DFP\2.1.0\Device\StdPeriph_Driver\src\stm32f10x_gpio.c 0x00000000   Number         0  stm32f10x_gpio.o ABSOLUTE
    C:\Keil_v5\ARM\PACK\Keil\STM32F1xx_DFP\2.1.0\Device\StdPeriph_Driver\src\stm32f10x_rcc.c 0x00000000   Number         0  stm32f10x_rcc.o ABSOLUTE
    C:\Keil_v5\ARM\PACK\Keil\STM32F1xx_DFP\2.1.0\Device\StdPeriph_Driver\src\stm32f10x_spi.c 0x00000000   Number         0  stm32f10x_spi.o ABSOLUTE
    C:\Keil_v5\ARM\PACK\Keil\STM32F1xx_DFP\2.1.0\Device\StdPeriph_Driver\src\stm32f10x_tim.c 0x00000000   Number         0  stm32f10x_tim.o ABSOLUTE
    C:\Keil_v5\ARM\PACK\Keil\STM32F1xx_DFP\2.1.0\Device\StdPeriph_Driver\src\stm32f10x_usart.c 0x00000000   Number         0  stm32f10x_usart.o ABSOLUTE
    C:\Keil_v5\ARM\PACK\Keil\STM32F1xx_DFP\2.1.0\RTE_Driver\GPIO_STM32F10x.c 0x00000000   Number         0  gpio_stm32f10x.o ABSOLUTE
    C:\\Keil_v5\\ARM\\PACK\\Keil\\STM32F1xx_DFP\\2.1.0\\Device\\StdPeriph_Driver\\src\\misc.c 0x00000000   Number         0  misc.o ABSOLUTE
    C:\\Keil_v5\\ARM\\PACK\\Keil\\STM32F1xx_DFP\\2.1.0\\Device\\StdPeriph_Driver\\src\\stm32f10x_adc.c 0x00000000   Number         0  stm32f10x_adc.o ABSOLUTE
    C:\\Keil_v5\\ARM\\PACK\\Keil\\STM32F1xx_DFP\\2.1.0\\Device\\StdPeriph_Driver\\src\\stm32f10x_dma.c 0x00000000   Number         0  stm32f10x_dma.o ABSOLUTE
    C:\\Keil_v5\\ARM\\PACK\\Keil\\STM32F1xx_DFP\\2.1.0\\Device\\StdPeriph_Driver\\src\\stm32f10x_exti.c 0x00000000   Number         0  stm32f10x_exti.o ABSOLUTE
    C:\\Keil_v5\\ARM\\PACK\\Keil\\STM32F1xx_DFP\\2.1.0\\Device\\StdPeriph_Driver\\src\\stm32f10x_gpio.c 0x00000000   Number         0  stm32f10x_gpio.o ABSOLUTE
    C:\\Keil_v5\\ARM\\PACK\\Keil\\STM32F1xx_DFP\\2.1.0\\Device\\StdPeriph_Driver\\src\\stm32f10x_rcc.c 0x00000000   Number         0  stm32f10x_rcc.o ABSOLUTE
    C:\\Keil_v5\\ARM\\PACK\\Keil\\STM32F1xx_DFP\\2.1.0\\Device\\StdPeriph_Driver\\src\\stm32f10x_spi.c 0x00000000   Number         0  stm32f10x_spi.o ABSOLUTE
    C:\\Keil_v5\\ARM\\PACK\\Keil\\STM32F1xx_DFP\\2.1.0\\Device\\StdPeriph_Driver\\src\\stm32f10x_tim.c 0x00000000   Number         0  stm32f10x_tim.o ABSOLUTE
    C:\\Keil_v5\\ARM\\PACK\\Keil\\STM32F1xx_DFP\\2.1.0\\Device\\StdPeriph_Driver\\src\\stm32f10x_usart.c 0x00000000   Number         0  stm32f10x_usart.o ABSOLUTE
    C:\\Keil_v5\\ARM\\PACK\\Keil\\STM32F1xx_DFP\\2.1.0\\RTE_Driver\\GPIO_STM32F10x.c 0x00000000   Number         0  gpio_stm32f10x.o ABSOLUTE
    RTE\Device\STM32F103C8\startup_stm32f10x_md.s 0x00000000   Number         0  startup_stm32f10x_md.o ABSOLUTE
    RTE\Device\STM32F103C8\system_stm32f10x.c 0x00000000   Number         0  system_stm32f10x.o ABSOLUTE
    RTE\\Device\\STM32F103C8\\system_stm32f10x.c 0x00000000   Number         0  system_stm32f10x.o ABSOLUTE
    dc.s                                     0x00000000   Number         0  dc.o ABSOLUTE
    main.c                                   0x00000000   Number         0  main.o ABSOLUTE
    main.c                                   0x00000000   Number         0  main.o ABSOLUTE
    system.c                                 0x00000000   Number         0  system.o ABSOLUTE
    system.c                                 0x00000000   Number         0  system.o ABSOLUTE
    RESET                                    0x08000000   Section      236  startup_stm32f10x_md.o(RESET)
    !!!main                                  0x080000ec   Section        8  __main.o(!!!main)
    !!!scatter                               0x080000f4   Section       52  __scatter.o(!!!scatter)
    !!handler_copy                           0x08000128   Section       26  __scatter_copy.o(!!handler_copy)
    !!handler_zi                             0x08000144   Section       28  __scatter_zi.o(!!handler_zi)
    .ARM.Collect$$_printf_percent$$00000000  0x08000160   Section        0  _printf_percent.o(.ARM.Collect$$_printf_percent$$00000000)
    .ARM.Collect$$_printf_percent$$00000009  0x08000160   Section        6  _printf_d.o(.ARM.Collect$$_printf_percent$$00000009)
    .ARM.Collect$$_printf_percent$$00000014  0x08000166   Section        6  _printf_s.o(.ARM.Collect$$_printf_percent$$00000014)
    .ARM.Collect$$_printf_percent$$00000017  0x0800016c   Section        4  _printf_percent_end.o(.ARM.Collect$$_printf_percent$$00000017)
    .ARM.Collect$$libinit$$00000000          0x08000170   Section        2  libinit.o(.ARM.Collect$$libinit$$00000000)
    .ARM.Collect$$libinit$$00000002          0x08000172   Section        0  libinit2.o(.ARM.Collect$$libinit$$00000002)
    .ARM.Collect$$libinit$$00000004          0x08000172   Section        0  libinit2.o(.ARM.Collect$$libinit$$00000004)
    .ARM.Collect$$libinit$$0000000A          0x08000172   Section        0  libinit2.o(.ARM.Collect$$libinit$$0000000A)
    .ARM.Collect$$libinit$$0000000C          0x08000172   Section        0  libinit2.o(.ARM.Collect$$libinit$$0000000C)
    .ARM.Collect$$libinit$$0000000E          0x08000172   Section        0  libinit2.o(.ARM.Collect$$libinit$$0000000E)
    .ARM.Collect$$libinit$$00000011          0x08000172   Section        0  libinit2.o(.ARM.Collect$$libinit$$00000011)
    .ARM.Collect$$libinit$$00000013          0x08000172   Section        0  libinit2.o(.ARM.Collect$$libinit$$00000013)
    .ARM.Collect$$libinit$$00000015          0x08000172   Section        0  libinit2.o(.ARM.Collect$$libinit$$00000015)
    .ARM.Collect$$libinit$$00000017          0x08000172   Section        0  libinit2.o(.ARM.Collect$$libinit$$00000017)
    .ARM.Collect$$libinit$$00000019          0x08000172   Section        0  libinit2.o(.ARM.Collect$$libinit$$00000019)
    .ARM.Collect$$libinit$$0000001B          0x08000172   Section        0  libinit2.o(.ARM.Collect$$libinit$$0000001B)
    .ARM.Collect$$libinit$$0000001D          0x08000172   Section        0  libinit2.o(.ARM.Collect$$libinit$$0000001D)
    .ARM.Collect$$libinit$$0000001F          0x08000172   Section        0  libinit2.o(.ARM.Collect$$libinit$$0000001F)
    .ARM.Collect$$libinit$$00000021          0x08000172   Section        0  libinit2.o(.ARM.Collect$$libinit$$00000021)
    .ARM.Collect$$libinit$$00000023          0x08000172   Section        0  libinit2.o(.ARM.Collect$$libinit$$00000023)
    .ARM.Collect$$libinit$$00000025          0x08000172   Section        0  libinit2.o(.ARM.Collect$$libinit$$00000025)
    .ARM.Collect$$libinit$$0000002C          0x08000172   Section        0  libinit2.o(.ARM.Collect$$libinit$$0000002C)
    .ARM.Collect$$libinit$$0000002E          0x08000172   Section        0  libinit2.o(.ARM.Collect$$libinit$$0000002E)
    .ARM.Collect$$libinit$$00000030          0x08000172   Section        0  libinit2.o(.ARM.Collect$$libinit$$00000030)
    .ARM.Collect$$libinit$$00000032          0x08000172   Section        0  libinit2.o(.ARM.Collect$$libinit$$00000032)
    .ARM.Collect$$libinit$$00000033          0x08000172   Section        2  libinit2.o(.ARM.Collect$$libinit$$00000033)
    .ARM.Collect$$libshutdown$$00000000      0x08000174   Section        2  libshutdown.o(.ARM.Collect$$libshutdown$$00000000)
    .ARM.Collect$$libshutdown$$00000002      0x08000176   Section        0  libshutdown2.o(.ARM.Collect$$libshutdown$$00000002)
    .ARM.Collect$$libshutdown$$00000004      0x08000176   Section        0  libshutdown2.o(.ARM.Collect$$libshutdown$$00000004)
    .ARM.Collect$$libshutdown$$00000007      0x08000176   Section        0  libshutdown2.o(.ARM.Collect$$libshutdown$$00000007)
    .ARM.Collect$$libshutdown$$0000000A      0x08000176   Section        0  libshutdown2.o(.ARM.Collect$$libshutdown$$0000000A)
    .ARM.Collect$$libshutdown$$0000000C      0x08000176   Section        0  libshutdown2.o(.ARM.Collect$$libshutdown$$0000000C)
    .ARM.Collect$$libshutdown$$0000000F      0x08000176   Section        0  libshutdown2.o(.ARM.Collect$$libshutdown$$0000000F)
    .ARM.Collect$$libshutdown$$00000010      0x08000176   Section        2  libshutdown2.o(.ARM.Collect$$libshutdown$$00000010)
    .ARM.Collect$$rtentry$$00000000          0x08000178   Section        0  __rtentry.o(.ARM.Collect$$rtentry$$00000000)
    .ARM.Collect$$rtentry$$00000002          0x08000178   Section        0  __rtentry2.o(.ARM.Collect$$rtentry$$00000002)
    .ARM.Collect$$rtentry$$00000004          0x08000178   Section        6  __rtentry4.o(.ARM.Collect$$rtentry$$00000004)
    .ARM.Collect$$rtentry$$00000009          0x0800017e   Section        0  __rtentry2.o(.ARM.Collect$$rtentry$$00000009)
    .ARM.Collect$$rtentry$$0000000A          0x0800017e   Section        4  __rtentry2.o(.ARM.Collect$$rtentry$$0000000A)
    .ARM.Collect$$rtentry$$0000000C          0x08000182   Section        0  __rtentry2.o(.ARM.Collect$$rtentry$$0000000C)
    .ARM.Collect$$rtentry$$0000000D          0x08000182   Section        8  __rtentry2.o(.ARM.Collect$$rtentry$$0000000D)
    .ARM.Collect$$rtexit$$00000000           0x0800018a   Section        2  rtexit.o(.ARM.Collect$$rtexit$$00000000)
    .ARM.Collect$$rtexit$$00000002           0x0800018c   Section        0  rtexit2.o(.ARM.Collect$$rtexit$$00000002)
    .ARM.Collect$$rtexit$$00000003           0x0800018c   Section        4  rtexit2.o(.ARM.Collect$$rtexit$$00000003)
    .ARM.Collect$$rtexit$$00000004           0x08000190   Section        6  rtexit2.o(.ARM.Collect$$rtexit$$00000004)
    .text                                    0x08000198   Section       64  startup_stm32f10x_md.o(.text)
    .text                                    0x080001d8   Section        0  noretval__2printf.o(.text)
    .text                                    0x080001f0   Section        0  noretval__2sprintf.o(.text)
    .text                                    0x08000218   Section        0  _printf_str.o(.text)
    .text                                    0x0800026c   Section        0  _printf_dec.o(.text)
    .text                                    0x080002e4   Section        0  __printf_wp.o(.text)
    .text                                    0x080003f2   Section        0  strlen.o(.text)
    .text                                    0x08000430   Section        0  heapauxi.o(.text)
    .text                                    0x08000436   Section        0  _printf_intcommon.o(.text)
    .text                                    0x080004e8   Section        0  _printf_char_common.o(.text)
    _printf_input_char                       0x080004e9   Thumb Code    10  _printf_char_common.o(.text)
    .text                                    0x08000518   Section        0  _sputc.o(.text)
    .text                                    0x08000522   Section        0  _printf_char.o(.text)
    .text                                    0x08000550   Section        0  _printf_char_file.o(.text)
    .text                                    0x08000574   Section        0  ferror.o(.text)
    .text                                    0x0800057c   Section       74  sys_stackheap_outer.o(.text)
    .text                                    0x080005c6   Section        0  exit.o(.text)
    .text                                    0x080005d8   Section        8  libspace.o(.text)
    .text                                    0x080005e0   Section        0  sys_exit.o(.text)
    .text                                    0x080005ec   Section        2  use_no_semi.o(.text)
    .text                                    0x080005ee   Section        0  indicate_semi.o(.text)
    i.Delay_init                             0x080005f0   Section        0  delay_sys.o(i.Delay_init)
    i.GPIO_Init                              0x0800062c   Section        0  stm32f10x_gpio.o(i.GPIO_Init)
    i.GPIO_PinRemapConfig                    0x08000744   Section        0  stm32f10x_gpio.o(i.GPIO_PinRemapConfig)
    i.MSD0_GetCardInfo                       0x080007d4   Section        0  spi_msd0_driver.o(i.MSD0_GetCardInfo)
    i.MSD0_Init                              0x08000aa0   Section        0  spi_msd0_driver.o(i.MSD0_Init)
    i.MSD0_ReadMultiBlock                    0x08000cd8   Section        0  spi_msd0_driver.o(i.MSD0_ReadMultiBlock)
    i.MSD0_ReadSingleBlock                   0x08000d58   Section        0  spi_msd0_driver.o(i.MSD0_ReadSingleBlock)
    i.MSD0_SPIHighSpeed                      0x08000d9c   Section        0  spi_msd0_driver.o(i.MSD0_SPIHighSpeed)
    i.MSD0_SPI_Configuration                 0x08000df4   Section        0  spi_msd0_driver.o(i.MSD0_SPI_Configuration)
    i.MSD0_WriteMultiBlock                   0x08000e90   Section        0  spi_msd0_driver.o(i.MSD0_WriteMultiBlock)
    i.MSD0_WriteSingleBlock                  0x08000fa8   Section        0  spi_msd0_driver.o(i.MSD0_WriteSingleBlock)
    i.MSD0_read_buffer                       0x08001070   Section        0  spi_msd0_driver.o(i.MSD0_read_buffer)
    i.MSD0_send_command                      0x080010f0   Section        0  spi_msd0_driver.o(i.MSD0_send_command)
    i.MSD0_send_command_hold                 0x0800116c   Section        0  spi_msd0_driver.o(i.MSD0_send_command_hold)
    i.MSD0_spi_read_write                    0x080011dc   Section        0  spi_msd0_driver.o(i.MSD0_spi_read_write)
    i.RCC_APB1PeriphClockCmd                 0x0800120c   Section        0  stm32f10x_rcc.o(i.RCC_APB1PeriphClockCmd)
    i.RCC_APB2PeriphClockCmd                 0x0800122c   Section        0  stm32f10x_rcc.o(i.RCC_APB2PeriphClockCmd)
    i.RCC_GetClocksFreq                      0x0800124c   Section        0  stm32f10x_rcc.o(i.RCC_GetClocksFreq)
    i.SD_ReadBmp                             0x08001320   Section        0  system.o(i.SD_ReadBmp)
    i.SD_ScanfFile                           0x08001418   Section        0  lib_sdcard.o(i.SD_ScanfFile)
    i.SD_TotalSize                           0x0800146c   Section        0  lib_sdcard.o(i.SD_TotalSize)
    i.SPI_Cmd                                0x08001528   Section        0  stm32f10x_spi.o(i.SPI_Cmd)
    i.SPI_Init                               0x08001540   Section        0  stm32f10x_spi.o(i.SPI_Init)
    i.SPI_SendByte                           0x0800157c   Section        0  ili9341_driver.o(i.SPI_SendByte)
    i.SYS_Init                               0x080015b0   Section        0  system.o(i.SYS_Init)
    i.SYS_Run                                0x0800161c   Section        0  system.o(i.SYS_Run)
    i.SetSysClock                            0x0800161e   Section        0  system_stm32f10x.o(i.SetSysClock)
    SetSysClock                              0x0800161f   Thumb Code     8  system_stm32f10x.o(i.SetSysClock)
    i.SetSysClockTo72                        0x08001628   Section        0  system_stm32f10x.o(i.SetSysClockTo72)
    SetSysClockTo72                          0x08001629   Thumb Code   214  system_stm32f10x.o(i.SetSysClockTo72)
    i.SysTick_CLKSourceConfig                0x08001708   Section        0  misc.o(i.SysTick_CLKSourceConfig)
    i.SystemInit                             0x08001730   Section        0  system_stm32f10x.o(i.SystemInit)
    i.TFT_Gui_Fill                           0x08001790   Section        0  ili9341_gui.o(i.TFT_Gui_Fill)
    i.TFT_Gui_Img                            0x0800180c   Section        0  ili9341_gui.o(i.TFT_Gui_Img)
    i.TFT_Send_Command                       0x08001874   Section        0  ili9341_driver.o(i.TFT_Send_Command)
    TFT_Send_Command                         0x08001875   Thumb Code    34  ili9341_driver.o(i.TFT_Send_Command)
    i.TFT_Send_Data                          0x0800189c   Section        0  ili9341_driver.o(i.TFT_Send_Data)
    TFT_Send_Data                            0x0800189d   Thumb Code    36  ili9341_driver.o(i.TFT_Send_Data)
    i.TFT_Send_Data_16Bit                    0x080018c4   Section        0  ili9341_driver.o(i.TFT_Send_Data_16Bit)
    i.TFT_SetWindows                         0x080018f4   Section        0  ili9341_driver.o(i.TFT_SetWindows)
    i.TFT_WriteRAM_Prepare                   0x0800194c   Section        0  ili9341_driver.o(i.TFT_WriteRAM_Prepare)
    i.USART_Cmd                              0x0800195c   Section        0  stm32f10x_usart.o(i.USART_Cmd)
    i.USART_GetFlagStatus                    0x08001974   Section        0  stm32f10x_usart.o(i.USART_GetFlagStatus)
    i.USART_Init                             0x08001990   Section        0  stm32f10x_usart.o(i.USART_Init)
    i.USART_SendData                         0x08001a68   Section        0  stm32f10x_usart.o(i.USART_SendData)
    i._is_digit                              0x08001a70   Section        0  __printf_wp.o(i._is_digit)
    i.check_fs                               0x08001a80   Section        0  ff.o(i.check_fs)
    check_fs                                 0x08001a81   Thumb Code   138  ff.o(i.check_fs)
    i.chk_chr                                0x08001b10   Section        0  ff.o(i.chk_chr)
    chk_chr                                  0x08001b11   Thumb Code    20  ff.o(i.chk_chr)
    i.chk_mounted                            0x08001b24   Section        0  ff.o(i.chk_mounted)
    chk_mounted                              0x08001b25   Thumb Code   898  ff.o(i.chk_mounted)
    i.clust2sect                             0x08001eb8   Section        0  ff.o(i.clust2sect)
    i.cmp_lfn                                0x08001ed4   Section        0  ff.o(i.cmp_lfn)
    cmp_lfn                                  0x08001ed5   Thumb Code   138  ff.o(i.cmp_lfn)
    i.create_chain                           0x08001f64   Section        0  ff.o(i.create_chain)
    create_chain                             0x08001f65   Thumb Code   202  ff.o(i.create_chain)
    i.create_name                            0x08002030   Section        0  ff.o(i.create_name)
    create_name                              0x08002031   Thumb Code   534  ff.o(i.create_name)
    i.dir_find                               0x08002260   Section        0  ff.o(i.dir_find)
    dir_find                                 0x08002261   Thumb Code   222  ff.o(i.dir_find)
    i.dir_next                               0x0800233e   Section        0  ff.o(i.dir_next)
    dir_next                                 0x0800233f   Thumb Code   280  ff.o(i.dir_next)
    i.dir_read                               0x08002456   Section        0  ff.o(i.dir_read)
    dir_read                                 0x08002457   Thumb Code   190  ff.o(i.dir_read)
    i.dir_register                           0x08002514   Section        0  ff.o(i.dir_register)
    dir_register                             0x08002515   Thumb Code   396  ff.o(i.dir_register)
    i.dir_sdi                                0x080026a0   Section        0  ff.o(i.dir_sdi)
    dir_sdi                                  0x080026a1   Thumb Code   156  ff.o(i.dir_sdi)
    i.disk_initialize                        0x0800273c   Section        0  diskio.o(i.disk_initialize)
    i.disk_ioctl                             0x08002770   Section        0  diskio.o(i.disk_ioctl)
    i.disk_read                              0x08002818   Section        0  diskio.o(i.disk_read)
    i.disk_status                            0x08002872   Section        0  diskio.o(i.disk_status)
    i.disk_write                             0x08002890   Section        0  diskio.o(i.disk_write)
    i.f_close                                0x080028ea   Section        0  ff.o(i.f_close)
    i.f_getfree                              0x08002900   Section        0  ff.o(i.f_getfree)
    i.f_mount                                0x08002a14   Section        0  ff.o(i.f_mount)
    i.f_open                                 0x08002a40   Section        0  ff.o(i.f_open)
    i.f_opendir                              0x08002bb4   Section        0  ff.o(i.f_opendir)
    i.f_read                                 0x08002c2c   Section        0  ff.o(i.f_read)
    i.f_readdir                              0x08002dfc   Section        0  ff.o(i.f_readdir)
    i.f_sync                                 0x08002e5c   Section        0  ff.o(i.f_sync)
    i.ff_convert                             0x08002f14   Section        0  ccsbcs.o(i.ff_convert)
    i.ff_wtoupper                            0x08002f60   Section        0  ccsbcs.o(i.ff_wtoupper)
    i.fit_lfn                                0x08002f98   Section        0  ff.o(i.fit_lfn)
    fit_lfn                                  0x08002f99   Thumb Code   122  ff.o(i.fit_lfn)
    i.follow_path                            0x08003018   Section        0  ff.o(i.follow_path)
    follow_path                              0x08003019   Thumb Code   158  ff.o(i.follow_path)
    i.fputc                                  0x080030b6   Section        0  usart.o(i.fputc)
    i.gen_numname                            0x080030c6   Section        0  ff.o(i.gen_numname)
    i.get_fat                                0x0800316e   Section        0  ff.o(i.get_fat)
    i.get_fattime                            0x08003252   Section        0  diskio.o(i.get_fattime)
    i.get_fileinfo                           0x08003256   Section        0  ff.o(i.get_fileinfo)
    get_fileinfo                             0x08003257   Thumb Code   296  ff.o(i.get_fileinfo)
    i.main                                   0x0800337e   Section        0  main.o(i.main)
    i.mem_cmp                                0x0800338a   Section        0  ff.o(i.mem_cmp)
    mem_cmp                                  0x0800338b   Thumb Code    38  ff.o(i.mem_cmp)
    i.mem_cpy                                0x080033b0   Section        0  ff.o(i.mem_cpy)
    mem_cpy                                  0x080033b1   Thumb Code    26  ff.o(i.mem_cpy)
    i.mem_set                                0x080033ca   Section        0  ff.o(i.mem_set)
    mem_set                                  0x080033cb   Thumb Code    20  ff.o(i.mem_set)
    i.move_window                            0x080033de   Section        0  ff.o(i.move_window)
    move_window                              0x080033df   Thumb Code   114  ff.o(i.move_window)
    i.pick_lfn                               0x08003450   Section        0  ff.o(i.pick_lfn)
    pick_lfn                                 0x08003451   Thumb Code   112  ff.o(i.pick_lfn)
    i.put_fat                                0x080034c4   Section        0  ff.o(i.put_fat)
    i.remove_chain                           0x080035fa   Section        0  ff.o(i.remove_chain)
    remove_chain                             0x080035fb   Thumb Code   104  ff.o(i.remove_chain)
    i.scan_files                             0x08003664   Section        0  lib_sdcard.o(i.scan_files)
    i.sum_sfn                                0x0800374c   Section        0  ff.o(i.sum_sfn)
    sum_sfn                                  0x0800374d   Thumb Code    32  ff.o(i.sum_sfn)
    i.sync                                   0x0800376c   Section        0  ff.o(i.sync)
    sync                                     0x0800376d   Thumb Code   202  ff.o(i.sync)
    i.touchInit                              0x08003838   Section        0  touchscreen.o(i.touchInit)
    i.uart_Init                              0x080038d4   Section        0  usart.o(i.uart_Init)
    i.uart_SendChar                          0x0800395c   Section        0  usart.o(i.uart_SendChar)
    i.validate                               0x0800397c   Section        0  ff.o(i.validate)
    validate                                 0x0800397d   Thumb Code    42  ff.o(i.validate)
    .constdata                               0x080039a6   Section     1216  ccsbcs.o(.constdata)
    Tbl                                      0x080039a6   Data         256  ccsbcs.o(.constdata)
    tbl_lower                                0x08003aa6   Data         480  ccsbcs.o(.constdata)
    tbl_upper                                0x08003c86   Data         480  ccsbcs.o(.constdata)
    .constdata                               0x08003e66   Section      141  ff.o(.constdata)
    LfnOfs                                   0x08003e66   Data          13  ff.o(.constdata)
    excvt                                    0x08003e73   Data         128  ff.o(.constdata)
    .conststring                             0x08003ef4   Section       11  system.o(.conststring)
    .data                                    0x20000000   Section       52  system.o(.data)
    .data                                    0x20000034   Section        4  delay_sys.o(.data)
    fac_us                                   0x20000034   Data           1  delay_sys.o(.data)
    fac_ms                                   0x20000036   Data           2  delay_sys.o(.data)
    .data                                    0x20000038   Section        4  usart.o(.data)
    .data                                    0x2000003c   Section        6  ff.o(.data)
    FatFs                                    0x2000003c   Data           4  ff.o(.data)
    Fsid                                     0x20000040   Data           2  ff.o(.data)
    .data                                    0x20000042   Section       20  stm32f10x_rcc.o(.data)
    APBAHBPrescTable                         0x20000042   Data          16  stm32f10x_rcc.o(.data)
    ADCPrescTable                            0x20000052   Data           4  stm32f10x_rcc.o(.data)
    .bss                                     0x20000058   Section    12246  system.o(.bss)
    .bss                                     0x2000302e   Section       14  ili9341_driver.o(.bss)
    .bss                                     0x2000303c   Section       12  touchscreen.o(.bss)
    .bss                                     0x20003048   Section      512  ff.o(.bss)
    LfnBuf                                   0x20003048   Data         512  ff.o(.bss)
    .bss                                     0x20003248   Section      768  lib_sdcard.o(.bss)
    lfn                                      0x20003448   Data         256  lib_sdcard.o(.bss)
    .bss                                     0x20003548   Section       88  spi_msd0_driver.o(.bss)
    .bss                                     0x200035a0   Section       96  libspace.o(.bss)
    HEAP                                     0x20003600   Section      512  startup_stm32f10x_md.o(HEAP)
    Heap_Mem                                 0x20003600   Data         512  startup_stm32f10x_md.o(HEAP)
    STACK                                    0x20003800   Section     1024  startup_stm32f10x_md.o(STACK)
    Stack_Mem                                0x20003800   Data        1024  startup_stm32f10x_md.o(STACK)
    __initial_sp                             0x20003c00   Data           0  startup_stm32f10x_md.o(STACK)

    Global Symbols

    Symbol Name                              Value     Ov Type        Size  Object(Section)

    BuildAttributes$$THM_ISAv4$P$D$K$B$S$PE$A:L22UL41UL21$X:L11$S22US41US21$IEEE1$IW$USESV6$~STKCKD$USESV7$~SHL$OSPACE$ROPI$EBA8$UX$STANDARDLIB$REQ8$PRES8$EABIv2 0x00000000   Number         0  anon$$obj.o ABSOLUTE
    __ARM_use_no_argv                        0x00000000   Number         0  main.o ABSOLUTE
    _printf_flags                            0x00000000   Number         0  printf_stubs.o ABSOLUTE
    _printf_return_value                     0x00000000   Number         0  printf_stubs.o ABSOLUTE
    _printf_sizespec                         0x00000000   Number         0  printf_stubs.o ABSOLUTE
    _printf_widthprec                        0x00000000   Number         0  printf_stubs.o ABSOLUTE
    __ARM_exceptions_init                     - Undefined Weak Reference
    __alloca_initialize                       - Undefined Weak Reference
    __arm_preinit_                            - Undefined Weak Reference
    __cpp_initialize__aeabi_                  - Undefined Weak Reference
    __cxa_finalize                            - Undefined Weak Reference
    __rt_locale                               - Undefined Weak Reference
    __sigvec_lookup                           - Undefined Weak Reference
    _atexit_init                              - Undefined Weak Reference
    _call_atexit_fns                          - Undefined Weak Reference
    _clock_init                               - Undefined Weak Reference
    _fp_trap_init                             - Undefined Weak Reference
    _fp_trap_shutdown                         - Undefined Weak Reference
    _get_lc_collate                           - Undefined Weak Reference
    _get_lc_ctype                             - Undefined Weak Reference
    _get_lc_monetary                          - Undefined Weak Reference
    _get_lc_numeric                           - Undefined Weak Reference
    _get_lc_time                              - Undefined Weak Reference
    _getenv_init                              - Undefined Weak Reference
    _handle_redirection                       - Undefined Weak Reference
    _init_alloc                               - Undefined Weak Reference
    _init_user_alloc                          - Undefined Weak Reference
    _initio                                   - Undefined Weak Reference
    _mutex_acquire                            - Undefined Weak Reference
    _mutex_release                            - Undefined Weak Reference
    _printf_mbtowc                            - Undefined Weak Reference
    _printf_post_padding                      - Undefined Weak Reference
    _printf_pre_padding                       - Undefined Weak Reference
    _printf_truncate_signed                   - Undefined Weak Reference
    _printf_truncate_unsigned                 - Undefined Weak Reference
    _rand_init                                - Undefined Weak Reference
    _signal_finish                            - Undefined Weak Reference
    _signal_init                              - Undefined Weak Reference
    _terminate_alloc                          - Undefined Weak Reference
    _terminate_user_alloc                     - Undefined Weak Reference
    _terminateio                              - Undefined Weak Reference
    __Vectors_Size                           0x000000ec   Number         0  startup_stm32f10x_md.o ABSOLUTE
    __Vectors                                0x08000000   Data           4  startup_stm32f10x_md.o(RESET)
    __Vectors_End                            0x080000ec   Data           0  startup_stm32f10x_md.o(RESET)
    __main                                   0x080000ed   Thumb Code     8  __main.o(!!!main)
    __scatterload                            0x080000f5   Thumb Code     0  __scatter.o(!!!scatter)
    __scatterload_rt2                        0x080000f5   Thumb Code    44  __scatter.o(!!!scatter)
    __scatterload_rt2_thumb_only             0x080000f5   Thumb Code     0  __scatter.o(!!!scatter)
    __scatterload_null                       0x08000103   Thumb Code     0  __scatter.o(!!!scatter)
    __scatterload_copy                       0x08000129   Thumb Code    26  __scatter_copy.o(!!handler_copy)
    __scatterload_zeroinit                   0x08000145   Thumb Code    28  __scatter_zi.o(!!handler_zi)
    _printf_d                                0x08000161   Thumb Code     0  _printf_d.o(.ARM.Collect$$_printf_percent$$00000009)
    _printf_percent                          0x08000161   Thumb Code     0  _printf_percent.o(.ARM.Collect$$_printf_percent$$00000000)
    _printf_s                                0x08000167   Thumb Code     0  _printf_s.o(.ARM.Collect$$_printf_percent$$00000014)
    _printf_percent_end                      0x0800016d   Thumb Code     0  _printf_percent_end.o(.ARM.Collect$$_printf_percent$$00000017)
    __rt_lib_init                            0x08000171   Thumb Code     0  libinit.o(.ARM.Collect$$libinit$$00000000)
    __rt_lib_init_alloca_1                   0x08000173   Thumb Code     0  libinit2.o(.ARM.Collect$$libinit$$0000002E)
    __rt_lib_init_argv_1                     0x08000173   Thumb Code     0  libinit2.o(.ARM.Collect$$libinit$$0000002C)
    __rt_lib_init_atexit_1                   0x08000173   Thumb Code     0  libinit2.o(.ARM.Collect$$libinit$$0000001B)
    __rt_lib_init_clock_1                    0x08000173   Thumb Code     0  libinit2.o(.ARM.Collect$$libinit$$00000021)
    __rt_lib_init_cpp_1                      0x08000173   Thumb Code     0  libinit2.o(.ARM.Collect$$libinit$$00000032)
    __rt_lib_init_exceptions_1               0x08000173   Thumb Code     0  libinit2.o(.ARM.Collect$$libinit$$00000030)
    __rt_lib_init_fp_1                       0x08000173   Thumb Code     0  libinit2.o(.ARM.Collect$$libinit$$00000002)
    __rt_lib_init_fp_trap_1                  0x08000173   Thumb Code     0  libinit2.o(.ARM.Collect$$libinit$$0000001F)
    __rt_lib_init_getenv_1                   0x08000173   Thumb Code     0  libinit2.o(.ARM.Collect$$libinit$$00000023)
    __rt_lib_init_heap_1                     0x08000173   Thumb Code     0  libinit2.o(.ARM.Collect$$libinit$$0000000A)
    __rt_lib_init_lc_collate_1               0x08000173   Thumb Code     0  libinit2.o(.ARM.Collect$$libinit$$00000011)
    __rt_lib_init_lc_ctype_1                 0x08000173   Thumb Code     0  libinit2.o(.ARM.Collect$$libinit$$00000013)
    __rt_lib_init_lc_monetary_1              0x08000173   Thumb Code     0  libinit2.o(.ARM.Collect$$libinit$$00000015)
    __rt_lib_init_lc_numeric_1               0x08000173   Thumb Code     0  libinit2.o(.ARM.Collect$$libinit$$00000017)
    __rt_lib_init_lc_time_1                  0x08000173   Thumb Code     0  libinit2.o(.ARM.Collect$$libinit$$00000019)
    __rt_lib_init_preinit_1                  0x08000173   Thumb Code     0  libinit2.o(.ARM.Collect$$libinit$$00000004)
    __rt_lib_init_rand_1                     0x08000173   Thumb Code     0  libinit2.o(.ARM.Collect$$libinit$$0000000E)
    __rt_lib_init_return                     0x08000173   Thumb Code     0  libinit2.o(.ARM.Collect$$libinit$$00000033)
    __rt_lib_init_signal_1                   0x08000173   Thumb Code     0  libinit2.o(.ARM.Collect$$libinit$$0000001D)
    __rt_lib_init_stdio_1                    0x08000173   Thumb Code     0  libinit2.o(.ARM.Collect$$libinit$$00000025)
    __rt_lib_init_user_alloc_1               0x08000173   Thumb Code     0  libinit2.o(.ARM.Collect$$libinit$$0000000C)
    __rt_lib_shutdown                        0x08000175   Thumb Code     0  libshutdown.o(.ARM.Collect$$libshutdown$$00000000)
    __rt_lib_shutdown_cpp_1                  0x08000177   Thumb Code     0  libshutdown2.o(.ARM.Collect$$libshutdown$$00000002)
    __rt_lib_shutdown_fp_trap_1              0x08000177   Thumb Code     0  libshutdown2.o(.ARM.Collect$$libshutdown$$00000007)
    __rt_lib_shutdown_heap_1                 0x08000177   Thumb Code     0  libshutdown2.o(.ARM.Collect$$libshutdown$$0000000F)
    __rt_lib_shutdown_return                 0x08000177   Thumb Code     0  libshutdown2.o(.ARM.Collect$$libshutdown$$00000010)
    __rt_lib_shutdown_signal_1               0x08000177   Thumb Code     0  libshutdown2.o(.ARM.Collect$$libshutdown$$0000000A)
    __rt_lib_shutdown_stdio_1                0x08000177   Thumb Code     0  libshutdown2.o(.ARM.Collect$$libshutdown$$00000004)
    __rt_lib_shutdown_user_alloc_1           0x08000177   Thumb Code     0  libshutdown2.o(.ARM.Collect$$libshutdown$$0000000C)
    __rt_entry                               0x08000179   Thumb Code     0  __rtentry.o(.ARM.Collect$$rtentry$$00000000)
    __rt_entry_presh_1                       0x08000179   Thumb Code     0  __rtentry2.o(.ARM.Collect$$rtentry$$00000002)
    __rt_entry_sh                            0x08000179   Thumb Code     0  __rtentry4.o(.ARM.Collect$$rtentry$$00000004)
    __rt_entry_li                            0x0800017f   Thumb Code     0  __rtentry2.o(.ARM.Collect$$rtentry$$0000000A)
    __rt_entry_postsh_1                      0x0800017f   Thumb Code     0  __rtentry2.o(.ARM.Collect$$rtentry$$00000009)
    __rt_entry_main                          0x08000183   Thumb Code     0  __rtentry2.o(.ARM.Collect$$rtentry$$0000000D)
    __rt_entry_postli_1                      0x08000183   Thumb Code     0  __rtentry2.o(.ARM.Collect$$rtentry$$0000000C)
    __rt_exit                                0x0800018b   Thumb Code     0  rtexit.o(.ARM.Collect$$rtexit$$00000000)
    __rt_exit_ls                             0x0800018d   Thumb Code     0  rtexit2.o(.ARM.Collect$$rtexit$$00000003)
    __rt_exit_prels_1                        0x0800018d   Thumb Code     0  rtexit2.o(.ARM.Collect$$rtexit$$00000002)
    __rt_exit_exit                           0x08000191   Thumb Code     0  rtexit2.o(.ARM.Collect$$rtexit$$00000004)
    Reset_Handler                            0x08000199   Thumb Code     8  startup_stm32f10x_md.o(.text)
    NMI_Handler                              0x080001a1   Thumb Code     2  startup_stm32f10x_md.o(.text)
    HardFault_Handler                        0x080001a3   Thumb Code     2  startup_stm32f10x_md.o(.text)
    MemManage_Handler                        0x080001a5   Thumb Code     2  startup_stm32f10x_md.o(.text)
    BusFault_Handler                         0x080001a7   Thumb Code     2  startup_stm32f10x_md.o(.text)
    UsageFault_Handler                       0x080001a9   Thumb Code     2  startup_stm32f10x_md.o(.text)
    SVC_Handler                              0x080001ab   Thumb Code     2  startup_stm32f10x_md.o(.text)
    DebugMon_Handler                         0x080001ad   Thumb Code     2  startup_stm32f10x_md.o(.text)
    PendSV_Handler                           0x080001af   Thumb Code     2  startup_stm32f10x_md.o(.text)
    SysTick_Handler                          0x080001b1   Thumb Code     2  startup_stm32f10x_md.o(.text)
    ADC1_2_IRQHandler                        0x080001b3   Thumb Code     0  startup_stm32f10x_md.o(.text)
    CAN1_RX1_IRQHandler                      0x080001b3   Thumb Code     0  startup_stm32f10x_md.o(.text)
    CAN1_SCE_IRQHandler                      0x080001b3   Thumb Code     0  startup_stm32f10x_md.o(.text)
    DMA1_Channel1_IRQHandler                 0x080001b3   Thumb Code     0  startup_stm32f10x_md.o(.text)
    DMA1_Channel2_IRQHandler                 0x080001b3   Thumb Code     0  startup_stm32f10x_md.o(.text)
    DMA1_Channel3_IRQHandler                 0x080001b3   Thumb Code     0  startup_stm32f10x_md.o(.text)
    DMA1_Channel4_IRQHandler                 0x080001b3   Thumb Code     0  startup_stm32f10x_md.o(.text)
    DMA1_Channel5_IRQHandler                 0x080001b3   Thumb Code     0  startup_stm32f10x_md.o(.text)
    DMA1_Channel6_IRQHandler                 0x080001b3   Thumb Code     0  startup_stm32f10x_md.o(.text)
    DMA1_Channel7_IRQHandler                 0x080001b3   Thumb Code     0  startup_stm32f10x_md.o(.text)
    EXTI0_IRQHandler                         0x080001b3   Thumb Code     0  startup_stm32f10x_md.o(.text)
    EXTI15_10_IRQHandler                     0x080001b3   Thumb Code     0  startup_stm32f10x_md.o(.text)
    EXTI1_IRQHandler                         0x080001b3   Thumb Code     0  startup_stm32f10x_md.o(.text)
    EXTI2_IRQHandler                         0x080001b3   Thumb Code     0  startup_stm32f10x_md.o(.text)
    EXTI3_IRQHandler                         0x080001b3   Thumb Code     0  startup_stm32f10x_md.o(.text)
    EXTI4_IRQHandler                         0x080001b3   Thumb Code     0  startup_stm32f10x_md.o(.text)
    EXTI9_5_IRQHandler                       0x080001b3   Thumb Code     0  startup_stm32f10x_md.o(.text)
    FLASH_IRQHandler                         0x080001b3   Thumb Code     0  startup_stm32f10x_md.o(.text)
    I2C1_ER_IRQHandler                       0x080001b3   Thumb Code     0  startup_stm32f10x_md.o(.text)
    I2C1_EV_IRQHandler                       0x080001b3   Thumb Code     0  startup_stm32f10x_md.o(.text)
    I2C2_ER_IRQHandler                       0x080001b3   Thumb Code     0  startup_stm32f10x_md.o(.text)
    I2C2_EV_IRQHandler                       0x080001b3   Thumb Code     0  startup_stm32f10x_md.o(.text)
    PVD_IRQHandler                           0x080001b3   Thumb Code     0  startup_stm32f10x_md.o(.text)
    RCC_IRQHandler                           0x080001b3   Thumb Code     0  startup_stm32f10x_md.o(.text)
    RTCAlarm_IRQHandler                      0x080001b3   Thumb Code     0  startup_stm32f10x_md.o(.text)
    RTC_IRQHandler                           0x080001b3   Thumb Code     0  startup_stm32f10x_md.o(.text)
    SPI1_IRQHandler                          0x080001b3   Thumb Code     0  startup_stm32f10x_md.o(.text)
    SPI2_IRQHandler                          0x080001b3   Thumb Code     0  startup_stm32f10x_md.o(.text)
    TAMPER_IRQHandler                        0x080001b3   Thumb Code     0  startup_stm32f10x_md.o(.text)
    TIM1_BRK_IRQHandler                      0x080001b3   Thumb Code     0  startup_stm32f10x_md.o(.text)
    TIM1_CC_IRQHandler                       0x080001b3   Thumb Code     0  startup_stm32f10x_md.o(.text)
    TIM1_TRG_COM_IRQHandler                  0x080001b3   Thumb Code     0  startup_stm32f10x_md.o(.text)
    TIM1_UP_IRQHandler                       0x080001b3   Thumb Code     0  startup_stm32f10x_md.o(.text)
    TIM2_IRQHandler                          0x080001b3   Thumb Code     0  startup_stm32f10x_md.o(.text)
    TIM3_IRQHandler                          0x080001b3   Thumb Code     0  startup_stm32f10x_md.o(.text)
    TIM4_IRQHandler                          0x080001b3   Thumb Code     0  startup_stm32f10x_md.o(.text)
    USART1_IRQHandler                        0x080001b3   Thumb Code     0  startup_stm32f10x_md.o(.text)
    USART2_IRQHandler                        0x080001b3   Thumb Code     0  startup_stm32f10x_md.o(.text)
    USART3_IRQHandler                        0x080001b3   Thumb Code     0  startup_stm32f10x_md.o(.text)
    USBWakeUp_IRQHandler                     0x080001b3   Thumb Code     0  startup_stm32f10x_md.o(.text)
    USB_HP_CAN1_TX_IRQHandler                0x080001b3   Thumb Code     0  startup_stm32f10x_md.o(.text)
    USB_LP_CAN1_RX0_IRQHandler               0x080001b3   Thumb Code     0  startup_stm32f10x_md.o(.text)
    WWDG_IRQHandler                          0x080001b3   Thumb Code     0  startup_stm32f10x_md.o(.text)
    __user_initial_stackheap                 0x080001b5   Thumb Code     0  startup_stm32f10x_md.o(.text)
    __2printf                                0x080001d9   Thumb Code    20  noretval__2printf.o(.text)
    __2sprintf                               0x080001f1   Thumb Code    34  noretval__2sprintf.o(.text)
    _printf_str                              0x08000219   Thumb Code    82  _printf_str.o(.text)
    _printf_int_dec                          0x0800026d   Thumb Code   104  _printf_dec.o(.text)
    __printf                                 0x080002e5   Thumb Code   270  __printf_wp.o(.text)
    strlen                                   0x080003f3   Thumb Code    62  strlen.o(.text)
    __use_two_region_memory                  0x08000431   Thumb Code     2  heapauxi.o(.text)
    __rt_heap_escrow$2region                 0x08000433   Thumb Code     2  heapauxi.o(.text)
    __rt_heap_expand$2region                 0x08000435   Thumb Code     2  heapauxi.o(.text)
    _printf_int_common                       0x08000437   Thumb Code   178  _printf_intcommon.o(.text)
    _printf_char_common                      0x080004f3   Thumb Code    32  _printf_char_common.o(.text)
    _sputc                                   0x08000519   Thumb Code    10  _sputc.o(.text)
    _printf_cs_common                        0x08000523   Thumb Code    20  _printf_char.o(.text)
    _printf_char                             0x08000537   Thumb Code    16  _printf_char.o(.text)
    _printf_string                           0x08000547   Thumb Code     8  _printf_char.o(.text)
    _printf_char_file                        0x08000551   Thumb Code    32  _printf_char_file.o(.text)
    ferror                                   0x08000575   Thumb Code     8  ferror.o(.text)
    __user_setup_stackheap                   0x0800057d   Thumb Code    74  sys_stackheap_outer.o(.text)
    exit                                     0x080005c7   Thumb Code    18  exit.o(.text)
    __user_libspace                          0x080005d9   Thumb Code     8  libspace.o(.text)
    __user_perproc_libspace                  0x080005d9   Thumb Code     0  libspace.o(.text)
    __user_perthread_libspace                0x080005d9   Thumb Code     0  libspace.o(.text)
    _sys_exit                                0x080005e1   Thumb Code     8  sys_exit.o(.text)
    __I$use$semihosting                      0x080005ed   Thumb Code     0  use_no_semi.o(.text)
    __use_no_semihosting_swi                 0x080005ed   Thumb Code     2  use_no_semi.o(.text)
    __semihosting_library_function           0x080005ef   Thumb Code     0  indicate_semi.o(.text)
    Delay_init                               0x080005f1   Thumb Code    52  delay_sys.o(i.Delay_init)
    GPIO_Init                                0x0800062d   Thumb Code   278  stm32f10x_gpio.o(i.GPIO_Init)
    GPIO_PinRemapConfig                      0x08000745   Thumb Code   138  stm32f10x_gpio.o(i.GPIO_PinRemapConfig)
    MSD0_GetCardInfo                         0x080007d5   Thumb Code   716  spi_msd0_driver.o(i.MSD0_GetCardInfo)
    MSD0_Init                                0x08000aa1   Thumb Code   560  spi_msd0_driver.o(i.MSD0_Init)
    MSD0_ReadMultiBlock                      0x08000cd9   Thumb Code   120  spi_msd0_driver.o(i.MSD0_ReadMultiBlock)
    MSD0_ReadSingleBlock                     0x08000d59   Thumb Code    62  spi_msd0_driver.o(i.MSD0_ReadSingleBlock)
    MSD0_SPIHighSpeed                        0x08000d9d   Thumb Code    84  spi_msd0_driver.o(i.MSD0_SPIHighSpeed)
    MSD0_SPI_Configuration                   0x08000df5   Thumb Code   142  spi_msd0_driver.o(i.MSD0_SPI_Configuration)
    MSD0_WriteMultiBlock                     0x08000e91   Thumb Code   272  spi_msd0_driver.o(i.MSD0_WriteMultiBlock)
    MSD0_WriteSingleBlock                    0x08000fa9   Thumb Code   190  spi_msd0_driver.o(i.MSD0_WriteSingleBlock)
    MSD0_read_buffer                         0x08001071   Thumb Code   124  spi_msd0_driver.o(i.MSD0_read_buffer)
    MSD0_send_command                        0x080010f1   Thumb Code   120  spi_msd0_driver.o(i.MSD0_send_command)
    MSD0_send_command_hold                   0x0800116d   Thumb Code   106  spi_msd0_driver.o(i.MSD0_send_command_hold)
    MSD0_spi_read_write                      0x080011dd   Thumb Code    44  spi_msd0_driver.o(i.MSD0_spi_read_write)
    RCC_APB1PeriphClockCmd                   0x0800120d   Thumb Code    26  stm32f10x_rcc.o(i.RCC_APB1PeriphClockCmd)
    RCC_APB2PeriphClockCmd                   0x0800122d   Thumb Code    26  stm32f10x_rcc.o(i.RCC_APB2PeriphClockCmd)
    RCC_GetClocksFreq                        0x0800124d   Thumb Code   192  stm32f10x_rcc.o(i.RCC_GetClocksFreq)
    SD_ReadBmp                               0x08001321   Thumb Code   224  system.o(i.SD_ReadBmp)
    SD_ScanfFile                             0x08001419   Thumb Code    34  lib_sdcard.o(i.SD_ScanfFile)
    SD_TotalSize                             0x0800146d   Thumb Code    76  lib_sdcard.o(i.SD_TotalSize)
    SPI_Cmd                                  0x08001529   Thumb Code    24  stm32f10x_spi.o(i.SPI_Cmd)
    SPI_Init                                 0x08001541   Thumb Code    60  stm32f10x_spi.o(i.SPI_Init)
    SPI_SendByte                             0x0800157d   Thumb Code    46  ili9341_driver.o(i.SPI_SendByte)
    SYS_Init                                 0x080015b1   Thumb Code    74  system.o(i.SYS_Init)
    SYS_Run                                  0x0800161d   Thumb Code     2  system.o(i.SYS_Run)
    SysTick_CLKSourceConfig                  0x08001709   Thumb Code    40  misc.o(i.SysTick_CLKSourceConfig)
    SystemInit                               0x08001731   Thumb Code    78  system_stm32f10x.o(i.SystemInit)
    TFT_Gui_Fill                             0x08001791   Thumb Code   118  ili9341_gui.o(i.TFT_Gui_Fill)
    TFT_Gui_Img                              0x0800180d   Thumb Code   100  ili9341_gui.o(i.TFT_Gui_Img)
    TFT_Send_Data_16Bit                      0x080018c5   Thumb Code    42  ili9341_driver.o(i.TFT_Send_Data_16Bit)
    TFT_SetWindows                           0x080018f5   Thumb Code    84  ili9341_driver.o(i.TFT_SetWindows)
    TFT_WriteRAM_Prepare                     0x0800194d   Thumb Code    12  ili9341_driver.o(i.TFT_WriteRAM_Prepare)
    USART_Cmd                                0x0800195d   Thumb Code    24  stm32f10x_usart.o(i.USART_Cmd)
    USART_GetFlagStatus                      0x08001975   Thumb Code    26  stm32f10x_usart.o(i.USART_GetFlagStatus)
    USART_Init                               0x08001991   Thumb Code   210  stm32f10x_usart.o(i.USART_Init)
    USART_SendData                           0x08001a69   Thumb Code     8  stm32f10x_usart.o(i.USART_SendData)
    _is_digit                                0x08001a71   Thumb Code    14  __printf_wp.o(i._is_digit)
    clust2sect                               0x08001eb9   Thumb Code    26  ff.o(i.clust2sect)
    disk_initialize                          0x0800273d   Thumb Code    52  diskio.o(i.disk_initialize)
    disk_ioctl                               0x08002771   Thumb Code   162  diskio.o(i.disk_ioctl)
    disk_read                                0x08002819   Thumb Code    90  diskio.o(i.disk_read)
    disk_status                              0x08002873   Thumb Code    30  diskio.o(i.disk_status)
    disk_write                               0x08002891   Thumb Code    90  diskio.o(i.disk_write)
    f_close                                  0x080028eb   Thumb Code    22  ff.o(i.f_close)
    f_getfree                                0x08002901   Thumb Code   276  ff.o(i.f_getfree)
    f_mount                                  0x08002a15   Thumb Code    38  ff.o(i.f_mount)
    f_open                                   0x08002a41   Thumb Code   368  ff.o(i.f_open)
    f_opendir                                0x08002bb5   Thumb Code   114  ff.o(i.f_opendir)
    f_read                                   0x08002c2d   Thumb Code   462  ff.o(i.f_read)
    f_readdir                                0x08002dfd   Thumb Code    92  ff.o(i.f_readdir)
    f_sync                                   0x08002e5d   Thumb Code   184  ff.o(i.f_sync)
    ff_convert                               0x08002f15   Thumb Code    70  ccsbcs.o(i.ff_convert)
    ff_wtoupper                              0x08002f61   Thumb Code    46  ccsbcs.o(i.ff_wtoupper)
    fputc                                    0x080030b7   Thumb Code    16  usart.o(i.fputc)
    gen_numname                              0x080030c7   Thumb Code   168  ff.o(i.gen_numname)
    get_fat                                  0x0800316f   Thumb Code   228  ff.o(i.get_fat)
    get_fattime                              0x08003253   Thumb Code     4  diskio.o(i.get_fattime)
    main                                     0x0800337f   Thumb Code    12  main.o(i.main)
    put_fat                                  0x080034c5   Thumb Code   310  ff.o(i.put_fat)
    scan_files                               0x08003665   Thumb Code   160  lib_sdcard.o(i.scan_files)
    touchInit                                0x08003839   Thumb Code   142  touchscreen.o(i.touchInit)
    uart_Init                                0x080038d5   Thumb Code   128  usart.o(i.uart_Init)
    uart_SendChar                            0x0800395d   Thumb Code    28  usart.o(i.uart_SendChar)
    Region$$Table$$Base                      0x08003f00   Number         0  anon$$obj.o(Region$$Table)
    Region$$Table$$Limit                     0x08003f20   Number         0  anon$$obj.o(Region$$Table)
    ColorTab                                 0x20000000   Data          10  system.o(.data)
    res                                      0x2000000a   Data           1  system.o(.data)
    br                                       0x2000000c   Data           4  system.o(.data)
    bw                                       0x20000010   Data           4  system.o(.data)
    k                                        0x20000014   Data           4  system.o(.data)
    i                                        0x20000018   Data           4  system.o(.data)
    x_pos                                    0x2000001c   Data           2  system.o(.data)
    y_pos                                    0x2000001e   Data           2  system.o(.data)
    position_array                           0x20000020   Data           4  system.o(.data)
    text                                     0x20000024   Data          10  system.o(.data)
    text1                                    0x20000030   Data           4  system.o(.data)
    __stdout                                 0x20000038   Data           4  usart.o(.data)
    fs                                       0x20000058   Data         560  system.o(.bss)
    Fn                                       0x20000288   Data         560  system.o(.bss)
    fsrc                                     0x200004b8   Data         548  system.o(.bss)
    fdst                                     0x200006dc   Data         548  system.o(.bss)
    buffer1                                  0x20000900   Data       10000  system.o(.bss)
    counter_buff                             0x20003010   Data          30  system.o(.bss)
    ili_dev                                  0x2000302e   Data          14  ili9341_driver.o(.bss)
    BT_IRQ_Pin                               0x2000303c   Data          12  touchscreen.o(.bss)
    path0                                    0x20003248   Data         512  lib_sdcard.o(.bss)
    SD0_CardInfo                             0x20003548   Data          88  spi_msd0_driver.o(.bss)
    __libspace_start                         0x200035a0   Data          96  libspace.o(.bss)
    __temporary_stack_top$libspace           0x20003600   Data           0  libspace.o(.bss)



==============================================================================

Memory Map of the image

  Image Entry point : 0x080000ed

  Load Region LR_IROM1 (Base: 0x08000000, Size: 0x00003f78, Max: 0x00020000, ABSOLUTE)

    Execution Region ER_IROM1 (Base: 0x08000000, Size: 0x00003f20, Max: 0x00020000, ABSOLUTE)

    Base Addr    Size         Type   Attr      Idx    E Section Name        Object

    0x08000000   0x000000ec   Data   RO         2953    RESET               startup_stm32f10x_md.o
    0x080000ec   0x00000008   Code   RO         3047  * !!!main             c_w.l(__main.o)
    0x080000f4   0x00000034   Code   RO         3244    !!!scatter          c_w.l(__scatter.o)
    0x08000128   0x0000001a   Code   RO         3246    !!handler_copy      c_w.l(__scatter_copy.o)
    0x08000142   0x00000002   PAD
    0x08000144   0x0000001c   Code   RO         3248    !!handler_zi        c_w.l(__scatter_zi.o)
    0x08000160   0x00000000   Code   RO         3042    .ARM.Collect$$_printf_percent$$00000000  c_w.l(_printf_percent.o)
    0x08000160   0x00000006   Code   RO         3041    .ARM.Collect$$_printf_percent$$00000009  c_w.l(_printf_d.o)
    0x08000166   0x00000006   Code   RO         3040    .ARM.Collect$$_printf_percent$$00000014  c_w.l(_printf_s.o)
    0x0800016c   0x00000004   Code   RO         3078    .ARM.Collect$$_printf_percent$$00000017  c_w.l(_printf_percent_end.o)
    0x08000170   0x00000002   Code   RO         3114    .ARM.Collect$$libinit$$00000000  c_w.l(libinit.o)
    0x08000172   0x00000000   Code   RO         3121    .ARM.Collect$$libinit$$00000002  c_w.l(libinit2.o)
    0x08000172   0x00000000   Code   RO         3123    .ARM.Collect$$libinit$$00000004  c_w.l(libinit2.o)
    0x08000172   0x00000000   Code   RO         3126    .ARM.Collect$$libinit$$0000000A  c_w.l(libinit2.o)
    0x08000172   0x00000000   Code   RO         3128    .ARM.Collect$$libinit$$0000000C  c_w.l(libinit2.o)
    0x08000172   0x00000000   Code   RO         3130    .ARM.Collect$$libinit$$0000000E  c_w.l(libinit2.o)
    0x08000172   0x00000000   Code   RO         3133    .ARM.Collect$$libinit$$00000011  c_w.l(libinit2.o)
    0x08000172   0x00000000   Code   RO         3135    .ARM.Collect$$libinit$$00000013  c_w.l(libinit2.o)
    0x08000172   0x00000000   Code   RO         3137    .ARM.Collect$$libinit$$00000015  c_w.l(libinit2.o)
    0x08000172   0x00000000   Code   RO         3139    .ARM.Collect$$libinit$$00000017  c_w.l(libinit2.o)
    0x08000172   0x00000000   Code   RO         3141    .ARM.Collect$$libinit$$00000019  c_w.l(libinit2.o)
    0x08000172   0x00000000   Code   RO         3143    .ARM.Collect$$libinit$$0000001B  c_w.l(libinit2.o)
    0x08000172   0x00000000   Code   RO         3145    .ARM.Collect$$libinit$$0000001D  c_w.l(libinit2.o)
    0x08000172   0x00000000   Code   RO         3147    .ARM.Collect$$libinit$$0000001F  c_w.l(libinit2.o)
    0x08000172   0x00000000   Code   RO         3149    .ARM.Collect$$libinit$$00000021  c_w.l(libinit2.o)
    0x08000172   0x00000000   Code   RO         3151    .ARM.Collect$$libinit$$00000023  c_w.l(libinit2.o)
    0x08000172   0x00000000   Code   RO         3153    .ARM.Collect$$libinit$$00000025  c_w.l(libinit2.o)
    0x08000172   0x00000000   Code   RO         3157    .ARM.Collect$$libinit$$0000002C  c_w.l(libinit2.o)
    0x08000172   0x00000000   Code   RO         3159    .ARM.Collect$$libinit$$0000002E  c_w.l(libinit2.o)
    0x08000172   0x00000000   Code   RO         3161    .ARM.Collect$$libinit$$00000030  c_w.l(libinit2.o)
    0x08000172   0x00000000   Code   RO         3163    .ARM.Collect$$libinit$$00000032  c_w.l(libinit2.o)
    0x08000172   0x00000002   Code   RO         3164    .ARM.Collect$$libinit$$00000033  c_w.l(libinit2.o)
    0x08000174   0x00000002   Code   RO         3184    .ARM.Collect$$libshutdown$$00000000  c_w.l(libshutdown.o)
    0x08000176   0x00000000   Code   RO         3197    .ARM.Collect$$libshutdown$$00000002  c_w.l(libshutdown2.o)
    0x08000176   0x00000000   Code   RO         3199    .ARM.Collect$$libshutdown$$00000004  c_w.l(libshutdown2.o)
    0x08000176   0x00000000   Code   RO         3202    .ARM.Collect$$libshutdown$$00000007  c_w.l(libshutdown2.o)
    0x08000176   0x00000000   Code   RO         3205    .ARM.Collect$$libshutdown$$0000000A  c_w.l(libshutdown2.o)
    0x08000176   0x00000000   Code   RO         3207    .ARM.Collect$$libshutdown$$0000000C  c_w.l(libshutdown2.o)
    0x08000176   0x00000000   Code   RO         3210    .ARM.Collect$$libshutdown$$0000000F  c_w.l(libshutdown2.o)
    0x08000176   0x00000002   Code   RO         3211    .ARM.Collect$$libshutdown$$00000010  c_w.l(libshutdown2.o)
    0x08000178   0x00000000   Code   RO         3067    .ARM.Collect$$rtentry$$00000000  c_w.l(__rtentry.o)
    0x08000178   0x00000000   Code   RO         3085    .ARM.Collect$$rtentry$$00000002  c_w.l(__rtentry2.o)
    0x08000178   0x00000006   Code   RO         3097    .ARM.Collect$$rtentry$$00000004  c_w.l(__rtentry4.o)
    0x0800017e   0x00000000   Code   RO         3087    .ARM.Collect$$rtentry$$00000009  c_w.l(__rtentry2.o)
    0x0800017e   0x00000004   Code   RO         3088    .ARM.Collect$$rtentry$$0000000A  c_w.l(__rtentry2.o)
    0x08000182   0x00000000   Code   RO         3090    .ARM.Collect$$rtentry$$0000000C  c_w.l(__rtentry2.o)
    0x08000182   0x00000008   Code   RO         3091    .ARM.Collect$$rtentry$$0000000D  c_w.l(__rtentry2.o)
    0x0800018a   0x00000002   Code   RO         3118    .ARM.Collect$$rtexit$$00000000  c_w.l(rtexit.o)
    0x0800018c   0x00000000   Code   RO         3166    .ARM.Collect$$rtexit$$00000002  c_w.l(rtexit2.o)
    0x0800018c   0x00000004   Code   RO         3167    .ARM.Collect$$rtexit$$00000003  c_w.l(rtexit2.o)
    0x08000190   0x00000006   Code   RO         3168    .ARM.Collect$$rtexit$$00000004  c_w.l(rtexit2.o)
    0x08000196   0x00000002   PAD
    0x08000198   0x00000040   Code   RO         2954    .text               startup_stm32f10x_md.o
    0x080001d8   0x00000018   Code   RO         3010    .text               c_w.l(noretval__2printf.o)
    0x080001f0   0x00000028   Code   RO         3012    .text               c_w.l(noretval__2sprintf.o)
    0x08000218   0x00000052   Code   RO         3016    .text               c_w.l(_printf_str.o)
    0x0800026a   0x00000002   PAD
    0x0800026c   0x00000078   Code   RO         3018    .text               c_w.l(_printf_dec.o)
    0x080002e4   0x0000010e   Code   RO         3028    .text               c_w.l(__printf_wp.o)
    0x080003f2   0x0000003e   Code   RO         3043    .text               c_w.l(strlen.o)
    0x08000430   0x00000006   Code   RO         3045    .text               c_w.l(heapauxi.o)
    0x08000436   0x000000b2   Code   RO         3068    .text               c_w.l(_printf_intcommon.o)
    0x080004e8   0x00000030   Code   RO         3070    .text               c_w.l(_printf_char_common.o)
    0x08000518   0x0000000a   Code   RO         3072    .text               c_w.l(_sputc.o)
    0x08000522   0x0000002c   Code   RO         3074    .text               c_w.l(_printf_char.o)
    0x0800054e   0x00000002   PAD
    0x08000550   0x00000024   Code   RO         3076    .text               c_w.l(_printf_char_file.o)
    0x08000574   0x00000008   Code   RO         3101    .text               c_w.l(ferror.o)
    0x0800057c   0x0000004a   Code   RO         3105    .text               c_w.l(sys_stackheap_outer.o)
    0x080005c6   0x00000012   Code   RO         3107    .text               c_w.l(exit.o)
    0x080005d8   0x00000008   Code   RO         3115    .text               c_w.l(libspace.o)
    0x080005e0   0x0000000c   Code   RO         3176    .text               c_w.l(sys_exit.o)
    0x080005ec   0x00000002   Code   RO         3187    .text               c_w.l(use_no_semi.o)
    0x080005ee   0x00000000   Code   RO         3189    .text               c_w.l(indicate_semi.o)
    0x080005ee   0x00000002   PAD
    0x080005f0   0x0000003c   Code   RO          275    i.Delay_init        delay_sys.o
    0x0800062c   0x00000116   Code   RO         1666    i.GPIO_Init         stm32f10x_gpio.o
    0x08000742   0x00000002   PAD
    0x08000744   0x00000090   Code   RO         1668    i.GPIO_PinRemapConfig  stm32f10x_gpio.o
    0x080007d4   0x000002cc   Code   RO         1135    i.MSD0_GetCardInfo  spi_msd0_driver.o
    0x08000aa0   0x00000238   Code   RO         1136    i.MSD0_Init         spi_msd0_driver.o
    0x08000cd8   0x00000080   Code   RO         1137    i.MSD0_ReadMultiBlock  spi_msd0_driver.o
    0x08000d58   0x00000044   Code   RO         1138    i.MSD0_ReadSingleBlock  spi_msd0_driver.o
    0x08000d9c   0x00000058   Code   RO         1139    i.MSD0_SPIHighSpeed  spi_msd0_driver.o
    0x08000df4   0x0000009c   Code   RO         1140    i.MSD0_SPI_Configuration  spi_msd0_driver.o
    0x08000e90   0x00000118   Code   RO         1141    i.MSD0_WriteMultiBlock  spi_msd0_driver.o
    0x08000fa8   0x000000c8   Code   RO         1142    i.MSD0_WriteSingleBlock  spi_msd0_driver.o
    0x08001070   0x00000080   Code   RO         1143    i.MSD0_read_buffer  spi_msd0_driver.o
    0x080010f0   0x0000007c   Code   RO         1144    i.MSD0_send_command  spi_msd0_driver.o
    0x0800116c   0x00000070   Code   RO         1145    i.MSD0_send_command_hold  spi_msd0_driver.o
    0x080011dc   0x00000030   Code   RO         1216    i.MSD0_spi_read_write  spi_msd0_driver.o
    0x0800120c   0x00000020   Code   RO         1788    i.RCC_APB1PeriphClockCmd  stm32f10x_rcc.o
    0x0800122c   0x00000020   Code   RO         1790    i.RCC_APB2PeriphClockCmd  stm32f10x_rcc.o
    0x0800124c   0x000000d4   Code   RO         1798    i.RCC_GetClocksFreq  stm32f10x_rcc.o
    0x08001320   0x000000f8   Code   RO          121    i.SD_ReadBmp        system.o
    0x08001418   0x00000054   Code   RO         1089    i.SD_ScanfFile      lib_sdcard.o
    0x0800146c   0x000000bc   Code   RO         1090    i.SD_TotalSize      lib_sdcard.o
    0x08001528   0x00000018   Code   RO         2003    i.SPI_Cmd           stm32f10x_spi.o
    0x08001540   0x0000003c   Code   RO         2016    i.SPI_Init          stm32f10x_spi.o
    0x0800157c   0x00000034   Code   RO          362    i.SPI_SendByte      ili9341_driver.o
    0x080015b0   0x0000006c   Code   RO          123    i.SYS_Init          system.o
    0x0800161c   0x00000002   Code   RO          124    i.SYS_Run           system.o
    0x0800161e   0x00000008   Code   RO         2961    i.SetSysClock       system_stm32f10x.o
    0x08001626   0x00000002   PAD
    0x08001628   0x000000e0   Code   RO         2962    i.SetSysClockTo72   system_stm32f10x.o
    0x08001708   0x00000028   Code   RO         1232    i.SysTick_CLKSourceConfig  misc.o
    0x08001730   0x00000060   Code   RO         2964    i.SystemInit        system_stm32f10x.o
    0x08001790   0x0000007c   Code   RO          475    i.TFT_Gui_Fill      ili9341_gui.o
    0x0800180c   0x00000068   Code   RO          476    i.TFT_Gui_Img       ili9341_gui.o
    0x08001874   0x00000028   Code   RO          365    i.TFT_Send_Command  ili9341_driver.o
    0x0800189c   0x00000028   Code   RO          366    i.TFT_Send_Data     ili9341_driver.o
    0x080018c4   0x00000030   Code   RO          367    i.TFT_Send_Data_16Bit  ili9341_driver.o
    0x080018f4   0x00000058   Code   RO          368    i.TFT_SetWindows    ili9341_driver.o
    0x0800194c   0x00000010   Code   RO          369    i.TFT_WriteRAM_Prepare  ili9341_driver.o
    0x0800195c   0x00000018   Code   RO         2718    i.USART_Cmd         stm32f10x_usart.o
    0x08001974   0x0000001a   Code   RO         2721    i.USART_GetFlagStatus  stm32f10x_usart.o
    0x0800198e   0x00000002   PAD
    0x08001990   0x000000d8   Code   RO         2725    i.USART_Init        stm32f10x_usart.o
    0x08001a68   0x00000008   Code   RO         2735    i.USART_SendData    stm32f10x_usart.o
    0x08001a70   0x0000000e   Code   RO         3030    i._is_digit         c_w.l(__printf_wp.o)
    0x08001a7e   0x00000002   PAD
    0x08001a80   0x00000090   Code   RO          830    i.check_fs          ff.o
    0x08001b10   0x00000014   Code   RO          831    i.chk_chr           ff.o
    0x08001b24   0x00000394   Code   RO          832    i.chk_mounted       ff.o
    0x08001eb8   0x0000001a   Code   RO          833    i.clust2sect        ff.o
    0x08001ed2   0x00000002   PAD
    0x08001ed4   0x00000090   Code   RO          834    i.cmp_lfn           ff.o
    0x08001f64   0x000000ca   Code   RO          835    i.create_chain      ff.o
    0x0800202e   0x00000002   PAD
    0x08002030   0x00000230   Code   RO          836    i.create_name       ff.o
    0x08002260   0x000000de   Code   RO          837    i.dir_find          ff.o
    0x0800233e   0x00000118   Code   RO          838    i.dir_next          ff.o
    0x08002456   0x000000be   Code   RO          839    i.dir_read          ff.o
    0x08002514   0x0000018c   Code   RO          840    i.dir_register      ff.o
    0x080026a0   0x0000009c   Code   RO          842    i.dir_sdi           ff.o
    0x0800273c   0x00000034   Code   RO          771    i.disk_initialize   diskio.o
    0x08002770   0x000000a8   Code   RO          772    i.disk_ioctl        diskio.o
    0x08002818   0x0000005a   Code   RO          773    i.disk_read         diskio.o
    0x08002872   0x0000001e   Code   RO          774    i.disk_status       diskio.o
    0x08002890   0x0000005a   Code   RO          775    i.disk_write        diskio.o
    0x080028ea   0x00000016   Code   RO          844    i.f_close           ff.o
    0x08002900   0x00000114   Code   RO          845    i.f_getfree         ff.o
    0x08002a14   0x0000002c   Code   RO          848    i.f_mount           ff.o
    0x08002a40   0x00000174   Code   RO          849    i.f_open            ff.o
    0x08002bb4   0x00000078   Code   RO          850    i.f_opendir         ff.o
    0x08002c2c   0x000001ce   Code   RO          851    i.f_read            ff.o
    0x08002dfa   0x00000002   PAD
    0x08002dfc   0x00000060   Code   RO          852    i.f_readdir         ff.o
    0x08002e5c   0x000000b8   Code   RO          855    i.f_sync            ff.o
    0x08002f14   0x0000004c   Code   RO          742    i.ff_convert        ccsbcs.o
    0x08002f60   0x00000038   Code   RO          743    i.ff_wtoupper       ccsbcs.o
    0x08002f98   0x00000080   Code   RO          860    i.fit_lfn           ff.o
    0x08003018   0x0000009e   Code   RO          861    i.follow_path       ff.o
    0x080030b6   0x00000010   Code   RO          313    i.fputc             usart.o
    0x080030c6   0x000000a8   Code   RO          862    i.gen_numname       ff.o
    0x0800316e   0x000000e4   Code   RO          863    i.get_fat           ff.o
    0x08003252   0x00000004   Code   RO          776    i.get_fattime       diskio.o
    0x08003256   0x00000128   Code   RO          864    i.get_fileinfo      ff.o
    0x0800337e   0x0000000c   Code   RO            4    i.main              main.o
    0x0800338a   0x00000026   Code   RO          865    i.mem_cmp           ff.o
    0x080033b0   0x0000001a   Code   RO          866    i.mem_cpy           ff.o
    0x080033ca   0x00000014   Code   RO          867    i.mem_set           ff.o
    0x080033de   0x00000072   Code   RO          868    i.move_window       ff.o
    0x08003450   0x00000074   Code   RO          869    i.pick_lfn          ff.o
    0x080034c4   0x00000136   Code   RO          870    i.put_fat           ff.o
    0x080035fa   0x00000068   Code   RO          871    i.remove_chain      ff.o
    0x08003662   0x00000002   PAD
    0x08003664   0x000000e8   Code   RO         1091    i.scan_files        lib_sdcard.o
    0x0800374c   0x00000020   Code   RO          872    i.sum_sfn           ff.o
    0x0800376c   0x000000ca   Code   RO          873    i.sync              ff.o
    0x08003836   0x00000002   PAD
    0x08003838   0x0000009c   Code   RO          681    i.touchInit         touchscreen.o
    0x080038d4   0x00000088   Code   RO          314    i.uart_Init         usart.o
    0x0800395c   0x00000020   Code   RO          315    i.uart_SendChar     usart.o
    0x0800397c   0x0000002a   Code   RO          874    i.validate          ff.o
    0x080039a6   0x000004c0   Data   RO          744    .constdata          ccsbcs.o
    0x08003e66   0x0000008d   Data   RO          876    .constdata          ff.o
    0x08003ef3   0x00000001   PAD
    0x08003ef4   0x0000000b   Data   RO          137    .conststring        system.o
    0x08003eff   0x00000001   PAD
    0x08003f00   0x00000020   Data   RO         3242    Region$$Table       anon$$obj.o


    Execution Region RW_IRAM1 (Base: 0x20000000, Size: 0x00003c00, Max: 0x00005000, ABSOLUTE)

    Base Addr    Size         Type   Attr      Idx    E Section Name        Object

    0x20000000   0x00000034   Data   RW          138    .data               system.o
    0x20000034   0x00000004   Data   RW          278    .data               delay_sys.o
    0x20000038   0x00000004   Data   RW          317    .data               usart.o
    0x2000003c   0x00000006   Data   RW          877    .data               ff.o
    0x20000042   0x00000014   Data   RW         1818    .data               stm32f10x_rcc.o
    0x20000056   0x00000002   PAD
    0x20000058   0x00002fd6   Zero   RW          135    .bss                system.o
    0x2000302e   0x0000000e   Zero   RW          371    .bss                ili9341_driver.o
    0x2000303c   0x0000000c   Zero   RW          682    .bss                touchscreen.o
    0x20003048   0x00000200   Zero   RW          875    .bss                ff.o
    0x20003248   0x00000300   Zero   RW         1092    .bss                lib_sdcard.o
    0x20003548   0x00000058   Zero   RW         1146    .bss                spi_msd0_driver.o
    0x200035a0   0x00000060   Zero   RW         3116    .bss                c_w.l(libspace.o)
    0x20003600   0x00000200   Zero   RW         2952    HEAP                startup_stm32f10x_md.o
    0x20003800   0x00000400   Zero   RW         2951    STACK               startup_stm32f10x_md.o


==============================================================================

Image component sizes


      Code (inc. data)   RO Data    RW Data    ZI Data      Debug   Object Name

       132         16       1216          0          0       5187   ccsbcs.o
        60          8          0          4          0        729   delay_sys.o
       434         38          0          0          0       5675   diskio.o
      6814         86        141          6        512      32894   ff.o
       284         30          0          0         14       5169   ili9341_driver.o
       228         10          0          0          0       1645   ili9341_gui.o
       504        234          0          0        768       2631   lib_sdcard.o
        12          0          0          0          0     243187   main.o
        40          0          0          0          0        554   misc.o
      2616         76          0          0         88      10873   spi_msd0_driver.o
        64         26        236          0       1536        844   startup_stm32f10x_md.o
       422          6          0          0          0       2950   stm32f10x_gpio.o
       276         32          0         20          0       4606   stm32f10x_rcc.o
        84          0          0          0          0       2285   stm32f10x_spi.o
       274          6          0          0          0       4232   stm32f10x_usart.o
       358         58         11         52      12246       3664   system.o
       328         28          0          0          0       2085   system_stm32f10x.o
       156         14          0          0         12       2081   touchscreen.o
       184         12          0          4          0       3478   usart.o

    ----------------------------------------------------------------------
     13286        680       1638         88      15176     334769   Object Totals
         0          0         32          0          0          0   (incl. Generated)
        16          0          2          2          0          0   (incl. Padding)

    ----------------------------------------------------------------------

      Code (inc. data)   RO Data    RW Data    ZI Data      Debug   Library Member Name

         8          0          0          0          0         68   __main.o
       284          0          0          0          0        156   __printf_wp.o
         0          0          0          0          0          0   __rtentry.o
        12          0          0          0          0          0   __rtentry2.o
         6          0          0          0          0          0   __rtentry4.o
        52          8          0          0          0          0   __scatter.o
        26          0          0          0          0          0   __scatter_copy.o
        28          0          0          0          0          0   __scatter_zi.o
        44          0          0          0          0        108   _printf_char.o
        48          6          0          0          0         96   _printf_char_common.o
        36          4          0          0          0         80   _printf_char_file.o
         6          0          0          0          0          0   _printf_d.o
       120         16          0          0          0         92   _printf_dec.o
       178          0          0          0          0         88   _printf_intcommon.o
         0          0          0          0          0          0   _printf_percent.o
         4          0          0          0          0          0   _printf_percent_end.o
         6          0          0          0          0          0   _printf_s.o
        82          0          0          0          0         80   _printf_str.o
        10          0          0          0          0         68   _sputc.o
        18          0          0          0          0         80   exit.o
         8          0          0          0          0         68   ferror.o
         6          0          0          0          0        152   heapauxi.o
         0          0          0          0          0          0   indicate_semi.o
         2          0          0          0          0          0   libinit.o
         2          0          0          0          0          0   libinit2.o
         2          0          0          0          0          0   libshutdown.o
         2          0          0          0          0          0   libshutdown2.o
         8          4          0          0         96         68   libspace.o
        24          4          0          0          0         84   noretval__2printf.o
        40          6          0          0          0         84   noretval__2sprintf.o
         2          0          0          0          0          0   rtexit.o
        10          0          0          0          0          0   rtexit2.o
        62          0          0          0          0         76   strlen.o
        12          4          0          0          0         68   sys_exit.o
        74          0          0          0          0         80   sys_stackheap_outer.o
         2          0          0          0          0         68   use_no_semi.o

    ----------------------------------------------------------------------
      1236         52          0          0         96       1664   Library Totals
        12          0          0          0          0          0   (incl. Padding)

    ----------------------------------------------------------------------

      Code (inc. data)   RO Data    RW Data    ZI Data      Debug   Library Name

      1224         52          0          0         96       1664   c_w.l

    ----------------------------------------------------------------------
      1236         52          0          0         96       1664   Library Totals

    ----------------------------------------------------------------------

==============================================================================


      Code (inc. data)   RO Data    RW Data    ZI Data      Debug   

     14522        732       1638         88      15272     331177   Grand Totals
     14522        732       1638         88      15272     331177   ELF Image Totals
     14522        732       1638         88          0          0   ROM Totals

==============================================================================

    Total RO  Size (Code + RO Data)                16160 (  15.78kB)
    Total RW  Size (RW Data + ZI Data)             15360 (  15.00kB)
    Total ROM Size (Code + RO Data + RW Data)      16248 (  15.87kB)

==============================================================================

